:020000040800F2
:1000000000800020514D0008290C00082D0C00082C
:10001000310C0008350C0008390C00080000000005
:10002000000000000000000000000000A13E0008E9
:100030003D0C000800000000313F0008410C0008A2
:10004000A14D0008A14D0008A14D0008A14D0008D8
:10005000A14D0008A14D0008A14D0008A14D0008C8
:10006000A14D0008A14D0008A14D0008A14D0008B8
:10007000A14D0008A14D0008450C0008510C0008D6
:10008000A14D0008A14D0008A14D0008A14D000898
:10009000A14D0008A14D0008A14D0008A14D000888
:1000A000A14D0008A14D0008A14D0008A14D000878
:1000B000A14D0008A14D0008A14D0008A14D000868
:1000C000A14D0008A14D0008A14D0008A14D000858
:1000D000A14D00085D0C0008A14D0008A14D0008CD
:1000E000A14D0008A14D0008A14D0008A14D000838
:1000F000A14D0008A14D0008000000000000000014
:100100000000000000000000A14D0008A14D000803
:100110000000000000000000690C0008A14D00086C
:10012000A14D0008A14D0008750C0008A14D000864
:10013000A14D0008A14D0008A14D0008A14D0008E7
:10014000A14D0008000000000000000000000000B9
:10015000000000000000000000000000000000009F
:100160000000000000000000A14D0008A14D0008A3
:10017000A14D000800000000A14D00080000000093
:0801800000000000A14D000881
:1001900010B5054C237833B9044B13B10448AFF3C1
:1001A00000800123237010BD0C000020000000001F
:1001B000EC4D000808B5034B1BB103490348AFF3EE
:1001C000008008BD0000000010000020EC4D000879
:1001D00030B59BB001224FF48033002502244FF448
:1001E000801105A80592099206930D9307950C942A
:1001F0000E9102F073FB00B1FEE703464FF48062FC
:1002000021460F256846CDE90143049300950392EA
:1002100002F0AAFE034600B1FEE740F601014FF0EE
:1002200028420FA811930F91179203F08DF80446FE
:1002300000B1FEE74FF4007003F08CFD03F01CF8F2
:100240004FF47A73B0FBF3F003F04AFD042003F09F
:1002500061FD224629464FF0FF3003F0E3FC1BB05E
:1002600030BD00BF08B502F003FBFFF7B1FF00F09F
:1002700025F804F03BFD00F0CDF800F051F900F056
:1002800083F900F0B7F900F047FA00F0CDFA00F07A
:100290003DFB00F03BFC00F0A9F804F0CDFBFEE7CD
:1002A0000268034B9A4200D0704702F0F3BA00BFD5
:1002B00000100040FEE700BF704700BF3E4BF0B5A6
:1002C0005A693E4C3E4F3F4E42F400225A615A69F1
:1002D0008DB002F400220192019A5A6942F4800220
:1002E0005A615A6902F480020292029A5A6942F4EF
:1002F00000325A615A6902F400320392039A5A6931
:1003000042F480225A615A6902F480220492049ACB
:100310005A6942F400125A615A6902F400120592B5
:10032000059A5A6942F480125A615B6903F480139A
:100330000693204600224FF46041069B03F0FCFA2E
:10034000002204214FF0904003F0F6FA38460022D4
:100350004FF4807103F0F0FA00223046402103F0A0
:10036000EBFA0125204607A900244FF46043CDE9AC
:100370000735CDE9094403F05BF907A904234FF0E1
:1003800090400793CDE908540A9403F051F9384698
:1003900007A94FF480730793CDE908540A9403F03A
:1003A00047F9402307A93046CDE908540A9407933A
:1003B00003F03EF90DB0F0BD001002400008004807
:1003C000000C0048000400480648074C08B51821F6
:1003D000054601F06BF92B6801205B6A236004F08D
:1003E00049FBF8E7480E00207C0D002030B5074D92
:1003F0000FCD87B001AC0FC42B682360002101A88A
:1004000004F020FB024B186007B030BD044E00081A
:10041000740D002010B5184B184A1A6084B00022E1
:100420004FF4007118461961C3E90122DA6000F047
:100430006FFCE0B90021104800F080FD90B9002366
:100440004FF0406419466A460B480393CDE90133E7
:10045000009400F0E3FC18B160210948FFF72AFF7F
:1004600004B010BD55210648FFF724FFE7E74E21F1
:100470000348FFF71FFFDDE7C40D002000600140C7
:10048000244E0008204B02689A4200D0704703F5C2
:100490003043F0B59A691D4C42F080729A619B69B5
:1004A00087B003F08073002600930327072301A978
:1004B00005461748009A0193CDE9027603F0B8F893
:1004C0004FF4407301A913480193CDE9027603F07C
:1004D000AFF8114F666080214FF480724FF4806353
:1004E0002046A660C4E906662760C4E9031263617A
:1004F00003F03CFA18B96C61656207B0F0BD8E215B
:100500000648FFF7D7FEF6E700600140800D0020A7
:10051000000400480010004830040240244E000847
:1005200030B5174A8DB04FF08041002301244FF6BB
:10053000FF751160104603A9D560C2E9013313614C
:1005400093610493CDE906330893CDE90A3303940C
:100550000594099400F02EFF68B9002301A908480A
:10056000CDE9013301F002FD18B160210548FFF724
:10057000A1FE0DB030BD59210248FFF79BFEECE70C
:10058000080F0020304E000830B5174A174B136093
:100590008DB0002301244FF6FF75104603A9D560E6
:1005A000C2E90133136193610493CDE906330893E3
:1005B000CDE90A3303940594099400F0FBFE68B971
:1005C000002301A90848CDE9013301F0CFFC18B19F
:1005D00082210748FFF76EFE0DB030BD7B21044835
:1005E000FFF768FEECE700BFC80E002000040040E3
:1005F000304E000830B5424C424B236099B0002386
:100600004FF6FF722046E260C4E901332361A36123
:1006100000F0F6FD002843D1002301220FA938483D
:100620000F92119215921093CDE912331493CDE9E4
:10063000163300F0BFFE70BB002301A93048CDE99E
:10064000013301F093FC80BB60200023089008A9CF
:1006500008222B480C93CDE9093301F095FAA8B98B
:1006600008A90C22264801F08FFA18B1B8212648B3
:10067000FFF720FE2368234A93421BD0234A93426C
:1006800037D0234A934224D019B030BDB3211E483D
:10069000FFF710FEE4E7A3211B48FFF70BFECBE7B3
:1006A00095211948FFF706FEB6E7AA211648FFF77D
:1006B00001FEC9E717484FF440740222002303A942
:1006C000CDE903420792CDE9053302F0B1FF19B03D
:1006D00030BD002309224FF44045022403A90D48F0
:1006E0000792CDE90354CDE9053302F0A1FF19B01B
:1006F00030BD08240222002303A94FF09040DFE719
:10070000080E002000080040304E0008000C004099
:10071000001800400004004830B53D4C3D4B2360BC
:1007200099B000234FF6FF722046E260C4E901331E
:100730002361A36100F064FD00283DD10023012264
:100740000FA933480F92119215921093CDE91233ED
:100750001493CDE9163300F02DFE40BB002301A910
:100760002B48CDE9013301F001FCD8B90023602505
:100770000C2208A926480A93CDE908530C9301F0EE
:1007800003FA18B1EB212448FFF794FD2368234AAC
:10079000934216D01F4A934232D0214A93421FD02F
:1007A00019B030BDE2211C48FFF784FDDEE7DB21F4
:1007B0001948FFF77FFDD1E7CD211748FFF77AFDF4
:1007C000BCE718484FF440740222002303A9CDE986
:1007D00003420792CDE9053302F02AFF19B030BD7C
:1007E000002309224FF44045022403A90D48079233
:1007F000CDE90354CDE9053302F01AFF19B030BD3D
:1008000008240222002303A94FF09040DFE700BF35
:10081000880E0020000C0040304E00080008004008
:10082000001800400004004830B5324C324B2360C1
:100830008DB000234FF6FF722046E260C4E9013319
:100840002361A36100F0DCFC40BB002360251A4655
:1008500005A928480993CDE90633059501F094F9D7
:10086000B0B905A90422234801F08EF920B14FF454
:1008700086712248FFF71EFD2368214A934212D059
:10088000204A93422ED01C4A93421BD00DB030BD5B
:1008900040F207111948FFF70DFDE2E7FE21174866
:1008A000FFF708FDD1E718484FF4407402220023F7
:1008B0006946CDE900420492CDE9023302F0B8FE68
:1008C0000DB030BD002309224FF440450224694693
:1008D0000D480492CDE90054CDE9023302F0A8FEA0
:1008E0000DB030BD08240222002369464FF090402D
:1008F000DFE700BF480F002000180040304E00081E
:1009000000080040000C00400004004830B5184AC0
:10091000184B13608DB0002301244FF6FF7510466D
:1009200003A9D560C2E90133136193610493CDE952
:1009300006330893CDE90A3303940594099400F033
:1009400039FD70B9002301A90948CDE9013301F04F
:100950000DFB20B14FF498710748FFF7ABFC0DB0C9
:1009600030BD40F229110448FFF7A4FCEAE700BFBC
:10097000480E0020005C0140304E000870B503684E
:10098000B3F1804F88B007D0304A934245D0304A07
:10099000934227D008B070BD03F5043303A9DA6988
:1009A00042F00102DA61DB6903F0010300930226E1
:1009B0004FF40043002401254FF09040CDE9033669
:1009C000009A0795CDE9054402F032FE03A90823F9
:1009D00020480393CDE90464CDE9064502F028FEE2
:1009E00008B070BD1C4B9A6942F400229A619B6961
:1009F00003F40023029303A90123022600240B25FC
:100A00004FF09040CDE90336029A0795CDE90544B1
:100A100002F00EFE03A98023DAE70F4B0D48DA69D6
:100A200042F00202DA61DB6903F002030193022261
:100A30000023302403A9019D0792CDE90342CDE9AB
:100A4000053302F0F5FD08B070BD00BF00040040A2
:100A5000005C0140000400480010024070B50368CB
:100A6000264A934288B013D0254A93422BD0254A78
:100A7000934201D008B070BD234BDA6942F04002C6
:100A8000DA61DB6903F040030393039B08B070BD98
:100A90001D4BDA6942F00402DA61DB6903F00403FA
:100AA00001930A2200234FF4C055022403A94FF0FA
:100AB0009040019E0792CDE90354CDE9053302F041
:100AC000B7FD08B070BD104BDA6942F00802DA6178
:100AD000DB6903F008030293022200234FF48174C0
:100AE00003A94FF09040029D0792CDE90342CDE962
:100AF000053302F09DFD08B070BD00BF0008004046
:100B0000000C004000180040001002400D4B0E4A3F
:100B100010B50C210D4C1A60184600225C6059611A
:100B2000C3E902221A61C3E90622C3E9082201F0DF
:100B3000CDFC00B910BD51210548BDE81040FFF7BC
:100B4000B9BB00BF1010002000380140C0C62D0006
:100B50003C4E00082E4B02689A4200D0704703F5C5
:100B6000584370B59A692B4D42F480429A619B6953
:100B700086B003F48043009302214FF4C063002445
:100B8000032201930291072301A9064600980593C9
:100B90004FF09040CDE9034202F04AFD1E496C60DF
:100BA00080224FF480532846AC60C5E90444AC6110
:100BB0002960EA60EB6102F0D9FEF0B9174C184BDE
:100BC0002360102100238022756620466E626160DA
:100BD000C4E90232C4E90433C4E9063302F0C6FEB4
:100BE00080B90022052134662520666203F01AF8D8
:100BF000252003F05FF806B070BD79210948FFF7A2
:100C000059FBDBE789210748FFF754FBE9E700BF01
:100C100000380140CC0F002058000240880F00200F
:100C2000440002403C4E0008704700BFFEE700BF92
:100C3000FEE700BFFEE700BFFEE700BF704700BF52
:100C400003F020BF014802F083BF00BF880F0020DF
:100C5000014802F07DBF00BFCC0F0020014801F029
:100C600005BA00BF10100020014800F061BE00BFAF
:100C700084100020014802F06BBF00BF800D0020EF
:100C8000224B00B59A6942F001029A619A6983B0D9
:100C900002F001020092009ADA6942F08052DA61B1
:100CA000DB6903F0805301930320019B02F09EFF58
:100CB000002211466FF00B0002F0B4FF0022114633
:100CC0006FF00A0002F0AEFF002211466FF009003B
:100CD00002F0A8FF002211466FF0040002F0A2FF0C
:100CE000002211466FF0030002F09CFF00220F214A
:100CF0006FF0010002F096FF00220F214FF0FF304D
:100D000003B05DF804EB02F08DBF00BF001002409D
:100D100000287DD003683F4A934270B504460CD04A
:100D200002F58062934208D002F58062934204D0BB
:100D30004FF48B713848FFF7BFFA636833F40062F1
:100D400007D0B3F5805F04D040F217113248FFF7A7
:100D5000B3FAA36833F0807304D04FF48C712E483B
:100D6000FFF7AAFAE36833F4806304D040F2191164
:100D70002948FFF7A1FA236933F4407304D04FF4F4
:100D80008D712548FFF798FA002301224FF4005196
:100D9000C4E90633C4E90A33C4E90D332364C4E962
:100DA000082221632046FFF76DFBD4E90023116878
:100DB0002569D4E9026021F4E05111601168034310
:100DC0000B4313605168134821F0807151605368E0
:100DD00033435360036803F44073AB420CD1536850
:100DE00043F001035360936813F40043FBD10122E5
:100DF000184684F83C2070BD036823F440730360F8
:100E000003681D430560022001F056FD2268E6E7F5
:100E10000120704700600140484E0008F8B50546C3
:100E200043482B6883420E4614460BD0414A9342F6
:100E300008D002F58062934204D040F2C1113E48CE
:100E4000FFF73AFA022E24D854B3236833F08062B5
:100E500002D0B3F1406F5AD1636833F4401123F4E8
:100E6000801205D0B2F5800F02D0B3F5E00F59D152
:100E7000A36833F0804202D0B3F1004F41D1E36860
:100E8000B3F5805F12D295F83C30012B17D00120CA
:100E9000F8BD4FF4E1712848FFF70EFA002CD4D1C9
:100EA00040F2C3112448FFF707FACEE740F2C7111A
:100EB0002148FFF701FA95F83C30012BE7D12A6869
:100EC000136843F00043136001F0F0FC074604E0B0
:100ED00001F0ECFCC01BC8281FD82B689A68002AB8
:100EE000F6DAD4E90025D4E902012A43B600203617
:100EF00002430A439A511A6822F000421A60002005
:100F0000F8BD4FF4E3710C48FFF7D6F9B7E74FF49B
:100F1000E2710948FFF7D0F99EE7FF2385F83C30DE
:100F20000320F8BD40F2C5110348FFF7C5F99FE75C
:100F30000060014000640140484E000870B503683D
:100F4000194EB34204460D461ED0184A934210D0A3
:100F500002F5806293420CD040F293211448FFF7CF
:100F6000ABF9012D12D82368B34204D1012D09D069
:100F700001E0012D0AD894F83C305A1E012A0FD9FD
:100F8000042B0DD0012070BD0129EFD94FF425713C
:100F90000748FFF791F994F83C305A1E012AEFD820
:100FA000A562002070BD00BF0060014000640140E8
:100FB000484E0008704700BF002800F0B08003686A
:100FC000B3F1804F70B5044636D0634A934233D0B4
:100FD00002F5806293422FD002F5806293422BD0BB
:100FE00002F58062934227D002F58062934223D0BB
:100FF00002F5806293421FD002F5806293421BD0BB
:1010000002F58062934217D002F59032934213D0DA
:1010100002F5806293420FD002F5806293420BD0BA
:10102000A2F52C42934207D002F54042934203D0EE
:10103000D5214A48FFF740F9A36833F0100209D0E0
:1010400023F04002202A05D0402B03D0D62143486C
:10105000FFF732F9236933F4807202D0B3F5007FD1
:101060005FD1A36933F0800303D0D8213B48FFF759
:1010700023F994F83D3003F0FF02002B49D0226899
:10108000A1696068E568022384F83D30B2F1804FC1
:1010900013682AD0304EB24227D006F58066B2429D
:1010A00023D006F58066B2421FD006F5A836B242BC
:1010B00040D0A6F5A236B2421BD0294EB24218D07B
:1010C00006F58066B24214D006F59036B24236D0AC
:1010D00006F58066B24232D006F58066B2422ED066
:1010E00006F5A056B24208D103E0A66823F07003CB
:1010F0003343266923F44073334323F080030B43C7
:101100001360D562906201235361002084F83D3062
:1011100070BD84F83C202046FFF74CFFAFE701206C
:101120007047D7210D48FFF7C7F8A36933F0800354
:101130009FD09AE7A66823F070033343BDE7266982
:1011400023F44073334323F080030B431360D562D1
:10115000906263691363D6E700040040804E000884
:10116000001C00400368B3F1804F10B539D0224A0B
:10117000934236D002F58062934232D002F580620B
:1011800093422ED002F5806293422AD002F580620B
:10119000934226D002F58062934222D002F580620B
:1011A00093421ED002F5806293421AD002F590322B
:1011B000934216D002F58062934212D002F580620B
:1011C00093420ED0A2F52C4293420AD002F540423F
:1011D000934206D0044640F25F110848FFF76CF8CE
:1011E0002368DA6842F00102DA601A6842F001020C
:1011F0001A60002010BD00BF00040040804E0008AF
:10120000002800F0B3800368B3F1804F70B5044646
:1012100037D0654A934234D002F58062934230D091
:1012200002F5806293422CD002F58062934228D06E
:1012300002F58062934224D002F58062934220D06E
:1012400002F5806293421CD002F58062934218D06E
:1012500002F59032934214D002F58062934210D08E
:1012600002F5806293420CD0A2F52C42934208D042
:1012700002F54042934204D040F2EE314B48FFF772
:101280001BF8A36833F010020AD023F04002202A92
:1012900006D0402B04D040F2EF314448FFF70CF861
:1012A000236933F4807202D0B3F5007F60D1A36963
:1012B00033F0800304D040F2F1313C48FEF7FCFFEC
:1012C00094F83D3003F0FF02002B49D02268A16959
:1012D0006068E568022384F83D30B2F1804F1368FE
:1012E0002AD0314EB24227D006F58066B24223D0D2
:1012F00006F58066B2421FD006F5A836B24241D04C
:10130000A6F5A236B2421BD0294EB24218D006F53D
:101310008066B24214D006F59036B24237D006F558
:101320008066B24233D006F58066B2422FD006F511
:10133000A056B24208D103E0A66823F070033343FD
:10134000266923F44073334323F080030B43136077
:10135000D562906201235361002084F83D3070BD56
:1013600084F83C202046FFF779FBAFE70120704767
:101370004FF47C710D48FEF79FFFA36933F08003A3
:101380009ED098E7A66823F070033343BCE7266934
:1013900023F44073334323F080030B431360D5627F
:1013A000906263691363D5E700040040804E000833
:1013B000001C0040002800F03E810368B3F1804F1C
:1013C0002DE9F04105460C461BD0B54A934218D092
:1013D00002F58062934214D002F58062934210D0ED
:1013E00002F5406293420CD002F59432934208D049
:1013F00002F5E052934204D040F6E901A948FEF715
:101400005BFFAB6833F010020AD023F04002202AC1
:1014100006D0402B04D040F6EA01A248FEF74CFF6C
:101420002B6933F4807203D0B3F5007F40F005815F
:10143000AB6933F0800304D040F6EC019948FEF725
:101440003BFF2368013B022B00F2BD80A368013BF8
:10145000022B00F2CE80A369013B022B00F2BE807A
:10146000636833F0020202D00A2B40F0F180636916
:1014700033F0020202D00A2B40F0F580E36833F02B
:101480000C0304D040F6F2018648FEF715FFE3692D
:1014900033F00C0304D040F6F3018248FEF70CFF52
:1014A00023690F2B00F2BD80236A0F2B00F2AC8062
:1014B00095F83D3003F0FF02002B7ED02B68686862
:1014C000EE68AF69022285F83D20996821F0070196
:1014D0009960B3F1804F1A682ED071498B422BD09E
:1014E00001F580618B4227D001F580618B4223D0CA
:1014F00001F5A8318B4200F0C180A1F5A2318B42E9
:101500001ED069498B421BD001F580618B4217D0F8
:1015100001F590318B4200F0B68001F580618B427D
:1015200000F0B18001F580618B4200F0AC8001F5E4
:10153000A0518B4208D103E0A96822F070020A434F
:10154000296922F440720A4322F080023A431A6069
:10155000DE6298624FF0010CC3F814C098689E696F
:10156000A769A1682269D4F800E026F44078E6690A
:1015700041EA07211201E76842EA06223A43276A54
:101580001E6A28F0030841EA080142EA0732676947
:10159000646821F47C4121F0FC0126F0AA0644EAAB
:1015A000071440EA0E000A43344398609A61002011
:1015B0001C6285F83DC0BDE8F08185F83C202846D6
:1015C000FFF7DCF97AE740F6ED013648FEF774FEE6
:1015D000A368013B022B7FF63EAF0AE040F6EF0125
:1015E0003048FEF769FE636833F002023FF43FAF14
:1015F0003AE740F6EE012B48FEF75EFEA369013B99
:10160000022B7FF62DAFE9E740F6F5012548FEF7FE
:1016100053FE95F83D3003F0FF02002B7FF44EAFF0
:10162000CBE740F6F4011F48FEF746FE236A0F2B76
:101630007FF63EAFE8E70120704740F6EB0119481E
:10164000FEF73AFEAB6933F080033FF4FAAEF3E6FF
:101650004FF40F611348FEF72FFE636933F0020267
:101660003FF40CAF07E740F6F1010E48FEF724FE09
:10167000E36833F00C033FF40AAF03E7A96822F0F4
:1016800070020A433DE7296922F440720A4322F0BE
:1016900080023A431A60DE6298626A691A6359E707
:1016A00000040040804E0008001C004070B5046833
:1016B000B4F1804F00F08A80954B9C420D4606465F
:1016C00034D003F580639C4200F0D18003F5806341
:1016D0009C4200F08A8003F540639C4200F09380B6
:1016E00003F594339C4200F08E8003F5E0539C4256
:1016F00000F0898040F67A118648FEF7DDFD25B3BB
:10170000042D00F0C4803468B4F1804F62D0804B67
:101710009C420ED003F580639C4200F0AD8003F53F
:1017200080639C4240F0B5807B4B03E071B104299B
:101730005FD0774B1A6A22F001021A621A6A42F0ED
:1017400001021A621C461A4654E03468B4F1804F14
:101750002DD06F4B9C422AD003F580639C4226D04B
:1017600003F580639C4222D003F540639C421ED067
:1017700003F580639C421AD003F580639C4216D027
:1017800003F590339C4212D003F580639C420ED047
:1017900003F580639C420AD003F5A0539C4206D017
:1017A00041F273515B48FEF787FD326800E0224644
:1017B000236A23F001032362236A43F001032362B7
:1017C000136843F001031360002070BD0029EED0C0
:1017D00004290ED0236A23F001032362236A43F015
:1017E000010323624FF0804204E00029AED00429B7
:1017F0009AD12246236A23F010032362236A43F01E
:1018000010032362DCE7002DA0D0042D36D1B4F103
:10181000804FEED03E4B9C42EBD0404B9C42E8D0F8
:1018200003F580639C42E4D003F540639C42E0D022
:1018300003F580639C42DCD003F580639C42D8D0E2
:1018400003F590339C42D4D003F580639C42D0D002
:1018500003F580639C42CCD003F5A0539C42C8D0D2
:1018600041F273512B48FEF727FD3268C2E7002989
:101870003FF46CAF0429BCD0284B5BE7236A23F00C
:1018800001032362236A43F001032362C5E734683E
:10189000BDE703F540639C422DD003F580639C4275
:1018A00029D003F580639C4225D003F590339C42F8
:1018B00021D003F580639C421DD003F580639C42D8
:1018C00019D003F5A0539C4215D041F27351114831
:1018D000FEF7F2FC236A326823F001032362236AD5
:1018E000B2F1804F43F0010323620ED0084B9A42BD
:1018F000144692D17EE7236A23F001032362236A10
:1019000043F001032362224674E7144672E700BFE6
:1019100000040040804E0008000C00400008004019
:10192000704700BF704700BF704700BF704700BFDF
:1019300003681A69910710B5044602D5DA68920760
:101940005FD41A69500702D5DA68510746D41A697C
:10195000120702D5DA6810072ED41A69D20602D50A
:10196000DA68D00618D41A69D10702D5DA68D20726
:101970005DD41A69100602D5DA6811065FD41A69B7
:10198000520602D5DA68500661D41A69910602D56A
:10199000DA68920643D410BD6FF010021A61DB6959
:1019A000082213F4407F2277204664D0FFF7BAFF65
:1019B000002223682277D6E76FF008021A61DB69FC
:1019C000042299072277204652D1FFF7A9FF20462B
:1019D000FFF7AAFF002223682277BEE76FF0040218
:1019E0001A619B69022213F4407F227720463CD182
:1019F000FFF796FF2046FFF797FF00222368227724
:101A0000A5E76FF002021A619B6901229B0702772A
:101A100025D0FFF787FF00222368227791E76FF038
:101A2000200220461A61BDE8104000F009BB6FF0AB
:101A300001021A612046FEF733FC236899E76FF034
:101A400080021A61204600F0FDFA236897E76FF0E4
:101A500040021A612046FFF769FF236895E7FFF708
:101A60005FFF2046FFF760FFD5E7FFF75BFFC4E7A6
:101A7000FFF758FFAEE7FFF753FF2046FFF754FF8D
:101A800096E700BF2DE9F843036A3C4A044623F079
:101A9000010388680F4609682362256AD4F8048028
:101AA000A66925F0020526F07306944245EA000572
:101AB00046EA010634D0324B9C420BD003F58063DA
:101AC0009C4207D07B68C4F80480A66163632562EA
:101AD000BDE8F883FB6825F00809002B44D0082BEB
:101AE00034D125F00C0545F00805254B9C421DD04E
:101AF00003F580639C42E5D1BB6933F4007319D0D0
:101B000041F2A8211F48FEF7D7FB7B6933F48072AE
:101B100014D041F2A9211B48FEF7CEFB7B690DE0F2
:101B2000FB6825F0080913BB25F00C05BB6933F4ED
:101B30000073E5D17B6933F48072EAD1BA6928F485
:101B4000407848EA020843EA0808BBE741F29B21D3
:101B50000C48FEF7B1FBFD68084B49EA05059C42BD
:101B600025F00405C1D1E1E725F00C05BDE7082B00
:101B7000ECD125F00C0545F00805D7E70040014001
:101B800000440140804E000890F83C30012B00F0EA
:101B9000A5812DE9F0430123182A83B016460C468F
:101BA000054680F83C3000F29380B44BD340DB070D
:101BB00040F18E80236823F01003602B04D040F6A0
:101BC0004141AF48FEF778FBA36833F0020304D02D
:101BD00040F64241AA48FEF76FFB236933F0040345
:101BE00004D040F64341A648FEF766FB022385F881
:101BF0003D300C2E63D8DFE816F0BE0062006200B4
:101C000062000D006200620062000001620062007A
:101C1000620071002E68B6F1804F1CD0994B9E4235
:101C200019D003F580639E4215D003F580639E4270
:101C300011D003F540639E420DD003F594339E42CC
:101C400009D003F5E0539E4205D040F65A418C4836
:101C5000FEF732FB2E68336AD4F808C020688A4940
:101C600023F010033362326A7768B36922F02008E8
:101C700023F4E6498E4248EA0C1849EA002900F0AC
:101C80003781824B9E4200F0338103F580639E4290
:101C900000F02E81334662687760C6F81890B26310
:101CA000C6F820809969206941F4006199619969B9
:101CB00021F4806199619A6942EA00229A610020C8
:101CC000012385F83D3085F83C0003B0BDE8F08382
:101CD0004FF444616A48FEF7EFFA6BE72E68B6F1FD
:101CE000804F14D0674B9E4211D003F580639E4213
:101CF0000DD003F580639E4209D003F5A8339E42C0
:101D000005D040F678415E48FEF7D6FA2E68336A71
:101D1000D4F808C020685C4923F480533362376AE2
:101D20007268F36927F4005723F4E6488E4247EAC5
:101D30000C3748EA002800F0D380544B9E4200F054
:101D4000CF8003F580639E4200F0CA80334661680D
:101D50007260C6F81C8031643762D969206941F429
:101D60000061D961D96921F48061D961DA6942EAF7
:101D70000022DA61A3E72868B0F1804F2CD0414BF4
:101D8000984229D003F58063984225D003F58063FB
:101D9000984221D003F5406398421DD003F580633B
:101DA000984219D003F58063984215D003F590331B
:101DB000984211D003F5806398420DD003F58063FB
:101DC000984209D003F5A053984205D02C4840F61C
:101DD0004B41FEF771FA28682146FFF753FE2B6846
:101DE0002069996941F008019961996921F004011C
:101DF00099619A6902439A6161E72E68B6F1804F52
:101E000046D0204B9E4243D003F580639E423FD094
:101E100003F580639E423BD003F5A8339E4237D042
:101E200040F669411648FEF747FA2E68A068336A03
:101E30002168154A23F480733362336AD6F804901C
:101E4000F76923F4007827F07307964248EA0028E0
:101E500047EA010702D00D4B9E427ED1A36933F4BD
:101E600000735DD1616931F4807352D1A2692B682E
:101E700049EA021949EA01191CE000BF11110001E9
:101E8000804E000800040040004001400044014032
:101E9000336AA168226823F480733362336AD6F808
:101EA0000490F76923F4007827F0730748EA0128C3
:101EB000174333466268C6F80490F761F263C6F8C8
:101EC0002080D969206941F00801D961D96921F0E0
:101ED0000401D961DA690243DA61F0E60220704751
:101EE000616931F480732ED1334642EA81122EE7C4
:101EF000A36933F4007320D1616931F4807315D183
:101F0000A2692B6827F4806747EA820747EA8107BE
:101F1000C1E641F242311448FEF7CEF96169A5E706
:101F200041F241311048FEF7C7F99BE741F2F42135
:101F30000D48FEF7C1F96169E2E741F2F3210A4871
:101F4000FEF7BAF9D8E741F2823107480192FEF76D
:101F5000B3F961692B68019AC7E703F580639E4274
:101F60003FF47CAF3346A5E7804E00080368B3F129
:101F7000804F70B504460D4623D02F4A934220D09F
:101F800002F5806293421CD002F58062934218D021
:101F900002F58062934214D002F58062934210D021
:101FA00002F5963293420CD0A2F52442934208D017
:101FB00002F54042934204D040F255711F48FEF7AB
:101FC0007BF92B6833F0300306D0402B04D040F26D
:101FD00056711A48FEF770F96B6833F080031FD111
:101FE00094F83C30012B24D02368022284F83D2051
:101FF000586820F07000D5E90026586059681143F0
:102000005960996821F0800199609A680021012542
:1020100032439A60084684F83D5084F83C1070BD05
:1020200040F257710548FEF747F994F83C30012B10
:10203000DAD1022070BD00BF00040040B84E000895
:10204000704700BF704700BF704700BF704700BFB8
:10205000704700BF08B5436A0022A3F85A2018460B
:10206000A3F85220FFF7F4FF08BD00BF0368DA6948
:10207000196870B51607044612D1950663D498689E
:10208000D50202D5400200F1C980160602D50D0620
:1020900000F1A380500602D54A0600F1938070BD7E
:1020A000986810F001057BD0D60707D5C80505D57F
:1020B00001201862E06E40F00100E066960776D5D8
:1020C0003DB102201862E06E40F00400E066500767
:1020D00071D4100705D58E0600F19980002D40F0CF
:1020E0009680E06E0028DAD0900602D5890600F1CD
:1020F000AB80E26E120704D49D6815F0400500F035
:10210000CF801A6822F490721A609A68202122F017
:1021100001029A6084F86A109A68560640F18B8032
:102120009A68606E22F040029A60002800F0838076
:10213000714B436301F0E8FC0028B0D0606EBDE84D
:102140007040436B1847880699D594F86A20222A74
:1021500075D19B8CA068B4F85C10626D9BB2B0F531
:10216000805F03EA010300F0AE80511C61651370CB
:10217000B4F85A30013B9BB2A4F85A30002B8ED1F0
:1021800023681A6822F490721A609A68202122F05B
:1021900001029A60204684F86A10FFF757FF70BD6D
:1021A00011F4907F3FF46CAFD60787D57EE75607D2
:1021B0008FD5002D8DD004201862E06E40F0020013
:1021C000E06686E71A68202122F040021A60204665
:1021D00084F86910FFF738FF70BD94F86920212A50
:1021E0007FF45DAFB4F8522092B2002A5DD0A168AE
:1021F000E26CB1F5805F6ED0511CE16412781A85F3
:10220000B4F85230013B9BB2A4F8523070BD0820A4
:102210001862E06E40F00800E06662E720224FF4AA
:1022200080111962204684F8692084F86A20BDE88C
:10223000704000F01BBB2046FFF70AFF70BD9A6993
:1022400042F008029A6170BD94F86A20222A35D1C2
:102250009A8CA568B4F85C00616D92B2B5F5805FA8
:1022600002EA000241D04B1C63650A702368B4F88F
:102270005A20013A92B2A4F85A20002A7FF439AFCA
:102280001A6822F490721A609A68202122F00102E2
:102290009A60204684F86A10FFF7D8FE236828E782
:1022A0002046FFF7D5FEE56670BD1A6822F0800271
:1022B0001A601A6842F040021A6070BD9A6942F0D2
:1022C00008029A6115E7206900287FF44EAF22F8D2
:1022D000023B62654CE7216900298DD132F8021B6F
:1022E000C1F308011985E2648AE72569002DBAD196
:1022F00021F8022B6165BAE755200008436AFF2BDD
:1023000010B5044600F29580DA070AD5A16A31F4C7
:10231000003240F095802068426822F400320A437F
:10232000426098070AD5E16A31F4803240F090802B
:102330002068426822F480320A43426059070AD575
:10234000216B31F4802240F08B802068426822F4B7
:1023500080220A4342601A070AD5616B31F40042B9
:1023600040F086802068426822F400420A434260BE
:10237000D8060AD5A16B31F4805240F081802068E4
:10238000826822F480520A438260990609D5E16B83
:1023900031F400527CD12068826822F400520A4352
:1023A00082605A062BD52368464A93420CD0A2F588
:1023B0007442934208D002F58062934204D040F602
:1023C000D1014148FDF778FF236C5BB3B3F5801F63
:1023D00066D12268536843F480135360606C30F414
:1023E000C00306D0384840F6D701FDF765FF2268E4
:1023F000606C5168636A21F4C001014351601B069F
:102400000FD5A26C32F4002305D040F6DF012E4830
:10241000FDF752FFA26C21684B6823F4002313439D
:102420004B6010BD2168636A4A6822F480124A60DA
:10243000E5E740F6A2012448FDF73EFF636A63E743
:1024400040F6A7012048FDF737FFD4E9093162E7DC
:1024500040F6AE011C48FDF72FFFE16A636A67E7AB
:1024600040F6B5011848FDF727FF216B636A6CE75A
:1024700040F6BC011448FDF71FFF616B636A71E70A
:1024800040F6C3011048FDF717FFA16B636A76E7BA
:1024900040F6CA010C48FDF70FFFE16B636A7AE76B
:1024A00040F6D2010848FDF707FF2268216C536807
:1024B00023F480130B43B1F5801F53608ED0636A01
:1024C0009DE700BF00380140F44E0008002800F0EE
:1024D0006C818269036870B50446002A00F091801F
:1024E000BB4A93420CD0A2F57442934208D002F545
:1024F0008062934204D040F23111B648FDF7DCFE11
:1025000094F8693003F0FF02002B00F0948024233C
:10251000226884F8693013686068AF4923F00103CA
:102520008842136000F28180A36833F4805304D0A2
:1025300040F63A01A748FDF7BFFEE36833F4405385
:1025400004D040F63B01A348FDF7B6FE236933F4FF
:10255000806203D0B3F5C06F40F09480636933F0BC
:102560000C0200D123B940F63D019A48FDF7A4FEC4
:10257000A36933F4407304D040F63E019548FDF75B
:102580009BFE236A33F4006304D040F63F01914878
:10259000FDF792FEE06930F4004305D08D484FF41A
:1025A0000461FDF789FEE0692368A2681968D4E92F
:1025B000046521F41641324321F00C012A430A43F9
:1025C00002431A605968E568A269266A21F44051FD
:1025D0002943596099687E4D21F4306132430A43A2
:1025E000AB429A602DD07D4A934200F0C1807C4A74
:1025F000934200F0DC80B0F5004F00F03381012001
:1026000070BD734A93423FF47BAFA2F5744293428C
:102610003FF476AF02F5806293423FF471AF4FF41E
:102620009B716C48FDF748FE6AE740F6390169483E
:10263000FDF742FE78E784F868202046FEF78AFA24
:1026400065E7684A6849126B02F00302B0F5004F73
:102650008A5C00F0CB80082AD1D801A151F822F081
:102660006B270008912600083D270008FF25000879
:1026700059270008FF250008FF250008FF2500084E
:102680008F27000840F63C015248FDF715FE65E72C
:1026900000F010FED4E9003100EB5102B2FBF1F280
:1026A00092B2DA60626A002A7AD15A6822F49042C1
:1026B0005A609A6822F02A029A601A68002142F051
:1026C00001021A60E16600F0F1F823681A68110748
:1026D00006460BD41A68520724D42023002084F81D
:1026E000693084F8680084F86A3070BDDD6915F4DB
:1026F0000015EFD100F0DAF8801BB0F1007F2368FD
:10270000F4D31A6822F4D0721A609A68202122F059
:1027100001029A60032084F8691084F8685084F8F4
:102720006A1070BDDD6915F48005D6D100F0BEF8E1
:10273000801BB0F1007F2368F4D3E2E761684A08A8
:1027400002F5F40202F59052B2FBF1F292B2DA60B5
:10275000A8E7B0F5004F7FD000F050FD9AE7002ABF
:102760007FF449AFB0F5004F79D000F08BFD91E7D1
:1027700002F5E632126B02F44032B2F5803FE8D047
:10278000EDD9B2F5003F3AD1B0F5004F5FD06168A6
:102790004A0802F50042B2FBF1F292B2DA6081E738
:1027A0002046FFF7ABFD23687FE70120704702F565
:1027B000E432126B02F44022B2F5802FC9D0CED998
:1027C000B2F5002FE0D0B2F5402F1CD013E700BFC8
:1027D00000380140F44E0008405489000044004095
:1027E0000048004000100240F04E0008082A39D886
:1027F000DFE802F0351C0C38323838382D00B2F5DD
:10280000403F7FF4F8AEB0F5004F97D161684A08B9
:1028100002F5740202F51052B2FBF1F222F00F0140
:1028200089B2C2F342020A43DA603BE700F042FD9C
:10283000D4E900314A0802EB4000B0FBF1F020F08F
:102840000F0292B2C0F342001043D8602AE76168D9
:102850004A0802F58032DFE700F0D0FCE8E700F03C
:1028600011FDE5E70022DA60012070BD704700BF6E
:10287000074A08B5136843F010031360032001F002
:10288000B5F9002002F008F9FEF7FAF9002008BDBA
:1028900000200240034A044B11681B780B4413606C
:1028A000704700BF8010002000000020014B186816
:1028B000704700BF8010002038B50446FFF7F6FFD0
:1028C000631C054602D0044B1B781C44FFF7EEFF47
:1028D000401BA042FAD338BD00000020002800F0C1
:1028E0004B822DE9F043036883B00446002B79D076
:1028F000190700F01382DA0740F15681636833F458
:10290000803207D0B3F5A02F04D040F25D11BC484F
:10291000FDF7D2FCBB4A536803F00C03042B00F014
:102920002E81536803F00C03082B00F024816368A8
:10293000B3F5803F00F0B881002B00F01F82B3F5A3
:10294000A02F00F0CD82AF4B1A6822F480321A60BB
:102950001A6822F480221A60ABE1AA48F8220168C2
:1029600092FAA2F26369B2FA82F221F0F80193407E
:102970000B43036023681D0734D5A369012B05D9D8
:102980004FF4EB719E48FDF797FCA369002B00F014
:10299000CC81012292FAA2F19B4B9A4EB1FA81F1BD
:1029A0000B449B0015461A60FFF780FF4FF00208AA
:1029B000074605E0FFF77AFFC01B022800F2AA8154
:1029C00098FAA8F398FAA8F398FAA8F3726A98FA12
:1029D000A8F3B3FA83F303F01F0305FA03F31342DA
:1029E000E8D0236858073AD5E368012B06D9052BB0
:1029F00004D040F202218248FDF75EFC814BDA6987
:102A0000D10000F1EA81DA6942F08052DA61DB69D3
:102A100003F080530193019B4FF001087B4D2A681E
:102A2000D20540F16781E368012B00F02E82002B74
:102A300000F0D681052B734B1A6A00F05E8222F0FB
:102A400001021A621A6A22F004021A6222E2B8F142
:102A5000000F04D06B4AD36923F08053D361E3693C
:102A6000022B00F21781002B00F08180654D6A680F
:102A700002F00C02082A00F00381022B40F045828C
:102A8000236A33F4803304D040F24F215C48FDF7D1
:102A900013FC636A33F4402223F4802110D0B2F592
:102AA000801F0DD0B2F5001F0AD0B1F5401F07D02E
:102AB000B3F5601F04D04FF414715148FDF7FCFBCF
:102AC0004FF0807393FAA3F3B3FA83F303F18453C3
:102AD00003F584139B0000221A60FFF7E7FE4FF016
:102AE00000780746474D012605E0FFF7DFFEC01BD3
:102AF000022800F20F8198FAA8F32A6898FAA8F33E
:102B0000B3FA83F303F01F0306FA03F31342ECD185
:102B1000D4E908136A680B4322F4741213436B6000
:102B20004FF0807393FAA3F3B3FA83F303F1845362
:102B300003F584139B004FF000741E60FFF7B6FE90
:102B4000304E0746012505E0FFF7B0FEC01B022806
:102B500000F2E08094FAA4F3326894FAA4F3B3FA92
:102B600083F303F01F0305FA03F31342ECD00020B4
:102B700003B0BDE8F0835368DB037FF5D8AE4FF4B4
:102B8000003393FAA3F21F4A116893FAA3F3B3FA3E
:102B900083F303F01F03012202FA03F30B4202D076
:102BA0006368002B6CD023689F077FF5E4AE236930
:102BB000012B69D863691F2B00F20981114B5A68F8
:102BC00012F00C0F47D05A6802F00C02082A3FD0CE
:102BD0002269002A00F03281012292FAA2F3B3FAAC
:102BE00083F303F1845303F584139B0016461A60A4
:102BF000FFF75CFE4FF002080746024D0DE000BFF4
:102C00002C4F0008001002402081901000700040FE
:102C1000FFF74CFEC01B02287CD898FAA8F32A685C
:102C200098FAA8F3B3FA83F303F01F0306FA03F349
:102C30001342EDD02968F82292FAA2F26369B2FA3F
:102C400082F221F0F80193400B432B60236892E657
:102C50005B68DE03BCD4022393FAA3F2BF4A116877
:102C600093FAA3F3B3FA83F303F01F03012202FAEA
:102C700003F30B423FF471AE236993423FF46DAE10
:102C8000012003B0BDE8F08340F29511B448FDF790
:102C900013FB8FE740F24621B148FDF70DFBE369D6
:102CA000002B7FF4E3AE62E7AC4A136843F4803351
:102CB0001360AA4DA268EB6A23F00F031343EB6283
:102CC000FFF7F4FD4FF400380746012604E0FFF754
:102CD000EDFDC01B64281DD898FAA8F32A6898FA5D
:102CE000A8F3B3FA83F303F01F0306FA03F31342C6
:102CF000EDD058E72A6842F480722A60FFF7D6FDCB
:102D000006462B68DB053FF58EAEFFF7CFFD801B37
:102D10006428F6D9032003B0BDE8F08340F25711D0
:102D20008F48FDF7C9FA2368E5E5012595FAA5F175
:102D30008C4A8A4EB1FA81F10A4492004FF002089F
:102D40001360FFF7B3FD074604E0FFF7AFFDC01BBC
:102D50000228DFD898FAA8F398FAA8F398FAA8F30B
:102D6000726A98FAA8F3B3FA83F303F01F0305FA23
:102D700003F31342E9D134E601207047774D2B6805
:102D800023F480332B602B6823F480232B60EB6AC1
:102D9000A26823F00F031343EB62FFF787FD4FF4A4
:102DA00000380746012604E0FFF780FDC01B6428B9
:102DB000B0D898FAA8F32A6898FAA8F3B3FA83F37C
:102DC00003F01F0306FA03F31342EDD1EBE64FF4D1
:102DD000CB716348FDF770FAF0E64FF000081DE68E
:102DE0005E4D2B6A23F001032B622B6A23F0040350
:102DF0002B62FFF75BFD4FF002090746012615E045
:102E000099FAA9F36A6A99FAA9F3B3FA83F303F07A
:102E10001F0306FA03F313423FF419AEFFF746FD12
:102E200041F28833C01B98423FF674AF99FAA9F378
:102E300099FAA9F3002BE3D02A6AE4E7012595FA71
:102E4000A5F3B3FA83F303F1845303F584139B00D2
:102E50004FF002081A60FFF729FD404E074605E0D3
:102E6000FFF724FDC01B02283FF654AF98FAA8F3E1
:102E7000326898FAA8F3B3FA83F303F01F0305FA54
:102E800003F31342ECD1236875E5344A136A43F027
:102E900001031362FFF70AFD4FF0020907462F4EA8
:102EA000012515E099FAA9F3726A99FAA9F3B3FA20
:102EB00083F303F01F0305FA03F313427FF4C7AD56
:102EC000FFF7F4FC41F28833C01B98423FF622AF73
:102ED00099FAA9F399FAA9F3002BE3D0326AE4E74F
:102EE00003F18043A3F53C331A6842F480221A6050
:102EF0001A6842F480321A60DBE642F004021A6279
:102F00001A6A42F001021A62C4E74FF0807393FA22
:102F1000A3F3B3FA83F303F1845303F584139B0003
:102F200000221A60FFF7C2FC4FF00074074601262A
:102F300005E0FFF7BBFCC01B02283FF6EBAE94FA9E
:102F4000A4F32A6894FAA4F3B3FA83F303F01F03FB
:102F500006FA03F31342ECD109E600BF0010024069
:102F60002C4F000820819010002800F02C8103686D
:102F70001B072DE9F04104460D4600F00081022DAB
:102F800000F2F080934A136803F00703AB420CD2BF
:102F9000136823F007032B431360136803F0070340
:102FA000AB4202D00120BDE8F08123689F071ED507
:102FB000A16831F0800214D021F02002902A10D0B4
:102FC00021F04002A02A0CD021F01002C02A08D023
:102FD000F02906D040F2D2217F48FDF76DF9A168B3
:102FE00023687E48426822F0F0020A434260DE070E
:102FF00034D56368022B00F2DD80012B00F0C8801D
:10300000022B0CBF4FF00072022292FAA2F1734918
:10301000086892FAA2F2B2FA82F202F01F020121CB
:1030200001FA02F20242BDD06C4E726822F0030235
:1030300013437360FFF73AFC41F28837804606E09D
:10304000FFF734FCA0EB0800B84200F2C0807368C0
:10305000626803F00C03B3EB820FF1D15D4A136891
:1030600003F00703AB4209D9136823F007032B438E
:103070001360136803F00703AB4293D1236858072A
:1030800018D5E16831F480620ED021F40072B2F5F7
:10309000A06F09D0B1F5C06F06D040F215314E488F
:1030A000FDF70AF9E16823684C48426822F4E062BF
:1030B0000A434260190718D5226932F480630DD0A3
:1030C00022F40073B3F5A06F08D0B2F5C06F05D03D
:1030D0004FF447714048FDF7EFF822693F494B68CC
:1030E00023F4605343EAC2034B603C494A6802F050
:1030F0000C03042B65D0082B67D14FF4701393FA9F
:10310000A3F302F47010B3FA83F320FA03F3344804
:10311000C96AC35C0F2090FAA0F0B0FA80F001F009
:103120000F01C1402F48D203405C4ABF2E492F49AE
:10313000B1FBF0F101FB03F1284BF0225B6892FA3E
:10314000A2F2B2FA82F203F0F003D3402848294AEF
:10315000C35C002021FA03F3136001F09DFC002002
:10316000BDE8F08140F2BB211B48FDF7A5F8194AE4
:10317000136803F00703AB42FFF40AAF15E740F210
:10318000BA211548FDF798F8022D7FF6FBAEE9E766
:103190004FF4003292FAA2F11049096892FAA2F2B1
:1031A000B2FA82F202F01F0203FA02F20A427FF43C
:1031B0003BAFF7E640F2D9210748FDF77DF8636899
:1031C0001BE70949B8E7012070470B49B4E7032022
:1031D000E9E600BF002002402C4F0008001002402A
:1031E000644F0008744F0008001BB70000093D0041
:1031F0009C5000080400002000127A0018494B6817
:1032000003F00C02042A28D0082A24D110B44FF469
:10321000701292FAA2F2B2FA82F203F47010D04065
:10322000104CCA6A205C0F2191FAA1F1DB03B1FABC
:1032300081F102F00F0222FA01F248BF0A4B0B495A
:1032400058BF0B4B8A5C5DF8044B48BFB3FBF2F3ED
:1032500003FB00F07047074870470348704700BF02
:1032600000100240644F0008001BB700744F0008B4
:1032700000093D0000127A00014B1868704700BF3A
:1032800004000020084B4FF4E0625B6892FAA2F25F
:10329000B2FA82F203F4E063D3400449044ACB5CFF
:1032A0001068D840704700BF00100240AC500008C2
:1032B00004000020084B4FF460525B6892FAA2F2BF
:1032C000B2FA82F203F46053D3400449044ACB5C5F
:1032D0001068D840704700BF00100240AC50000892
:1032E0000400002038B50D460446D0B105B3134B99
:1032F00013490F2222605A6802F0030262605A6882
:1033000002F0F002A2605A6802F4E062E2605B68D8
:10331000DB0803F4E06323610B6803F007032B6011
:1033200038BD40F27B410748FCF7C6FF002DDED1D7
:1033300040F27C410348FCF7BFFFD8E70010024091
:10334000002002402C4F00082DE9F043A44B044616
:103350000068984283B000F22881C10346D56368B3
:1033600033F4407303D083219E48FCF7A5FF9E4BA6
:10337000DA69D20040F1F5809C4D2A68D7054FF0FC
:10338000000640F1FE80984D61682A6A12F440728E
:1033900020D001F4407393421CD0296A4FF480334B
:1033A00021F4407093FAA3F2914FB2FA82F23A44B8
:1033B00092004FF0010CC2F800C093FAA3F3B3FAE5
:1033C00083F33B449B000022C9071A60286200F186
:1033D00000816168844A136A23F440730B431362CB
:1033E0001EB1D36923F08053D3612068C20709D589
:1033F000A268032A00F2DF807B490B6B23F00303F2
:1034000013430B6383070FD5E26832F4403305D0D2
:103410007448D521FCF750FFE268206872490B6BB5
:1034200023F4403313430B6347070FD5226932F46B
:10343000402305D06B48E121FCF73EFF226920685C
:1034400069490B6B23F4402313430B6386060FD5A6
:10345000626932F0100305D06248EC21FCF72CFFC2
:103460006269206860490B6B23F0100313430B6300
:1034700085030AD5A26A32F4800340F0A3805A493A
:103480004B6823F4800313434B60410610D5A269B7
:1034900032F0200306D053484FF48771FCF70CFF3D
:1034A000A269206850490B6B23F0200313430B6380
:1034B000020610D5E26932F4404306D0494840F292
:1034C0008911FCF7F9FEE269206847494B6823F44B
:1034D000404313434B6003052CD5226A32F000436E
:1034E00022D022F08053B3F1084F1DD022F00053B8
:1034F000B3F1104F18D022F09043B3F1204F13D006
:1035000022F08043B3F1384F0ED022F0C053B3F114
:10351000404F09D0B2F1704F06D0324840F2EB1163
:10352000FCF7CAFE226A20682F494B6823F07843D3
:1035300013434B6010F4806010D0626A32F0400395
:1035400005D040F2F5112748FCF7B6FE626A26491D
:103550000B6B23F0400313430B63002003B0BDE863
:10356000F083DA69214D42F08052DA61DB6903F0C1
:1035700080530193019B2A68D7054FF001063FF560
:1035800002AF2A6842F480722A60FFF78FF907467B
:103590002B68D8053FF5F7AEFFF788F9C01B642804
:1035A000F6D9032003B0BDE8F0830E487D21FCF777
:1035B00083FE2068D1E60B48CA21FCF77DFEA26895
:1035C000206819E70748FA21FCF776FEA26A20680E
:1035D00055E76746FFF76AF94FF0020980461FE09A
:1035E000E70C0300844F0008001002400070004008
:1035F0000081901099FAA9F36A6A99FAA9F3B3FACB
:1036000083F303F01F0307FA03F313427FF4E1AEE1
:10361000FFF74CF941F28833A0EB08009842C0D87C
:1036200099FAA9F399FAA9F3002BE3D02A6AE4E7FF
:103630002DE9F04FB0F1904F85B00546884616D081
:10364000B44B984213D003F5806398420FD003F532
:10365000806398420BD003F58063984207D003F54E
:103660008063984203D0C321AB48FCF725FED8F80D
:1036700000309AB2002A00F0C2801B0C1B04002B01
:1036800040F0BD80D8F80430032B17D9A3F1110204
:10369000012A13D9A14923F400128A420ED001F560
:1036A00080118B420AD0A1F570218A4206D09C4A33
:1036B000934203D0C5219848FCF7FEFDD8F80830A6
:1036C000022B00F21581D8F80010002900F0948038
:1036D000944BDFF858A28F4A00240126A64016EA30
:1036E000010B00F08480D8F8041021F0100CBCF11C
:1036F000020F00F0B0804FEA44090327D5F800E03C
:1037000007FA09F7FF4301F0030007EA0E0E00FA7B
:1037100009F00CF1FF3C40EA0E00BCF1010F2860FB
:1037200072D9EE68D8F80800374000FA09F038433B
:10373000E860C80059D5986940F00100986198691F
:1037400024F0030606F1804600F0010006F58036FD
:10375000039004F003070398D6F808C0BF000F20B9
:10376000B840B5F1904F2CEA000017D0954200F018
:10377000C480DFF8B4C1654500F0B480DFF8B0C1A3
:10378000654500F0C080DFF8ACC165450CBF4FF067
:10379000040C4FF0050C0CFA07F73843B060DAF868
:1037A00000006FEA0B06CF0354BF30404BEA000025
:1037B000CAF80000DAF804008F0354BF30404BEA27
:1037C0000000CAF80400DAF80800CF0254BF304005
:1037D0004BEA0000CAF80800DAF80C00890254BF6E
:1037E00030404BEA0000CAF80C00D8F80010013451
:1037F00031FA04F07FF471AF05B0BDE8F08FC42159
:103800004548FCF759FD3DE7D8F80C0001280DD9D3
:1038100003280BD0EA214048CDE90032FCF74CFDEB
:10382000DDE90032D8F80C00D8F80410D5F808C04B
:1038300000FA09F007EA0C0C40EA0C00A860D5F881
:1038400004C0C1F300102CEA060C0646A64046EA66
:103850000C066E6065E7B5F1904F18D0954216D012
:1038600031498D4213D001F580618D420FD001F5B1
:1038700080618D420BD001F580618D4207D0D5214A
:103880002548CDE90032FCF717FDDDE90032D8F814
:1038900010000B280DD9A0F10E01012909D91E48ED
:1038A000D621CDE90032FCF707FDDDE90032D8F87A
:1038B0001000D8F80410E70805EB870704F00709A3
:1038C000D7F820C04FEA89094FF00F0E0EFA09FE13
:1038D0002CEA0E0C00FA09F040EA0C00386221F0E4
:1038E000100C08E74FF0020C0CFA07F7384355E7C5
:1038F000C6210948FCF7E0FCE5E64FF0010C0CFAA4
:1039000007F738434AE74FF0030C0CFA07F7384340
:1039100044E700BF00040048BC4F0008000011103D
:10392000000022100010024000080048000401407E
:10393000000C00480010004870B5064615460C46BD
:1039400059B1012D02D835B9B46270BD40F2B11140
:103950000548FCF7B1FCB46170BD4FF4D871024862
:10396000FCF7AAFCEDE700BFBC4F0008002800F000
:103970008C8003685C4A934270B5044625D01432AB
:10398000934222D0143293421FD0143293421CD05F
:103990001432934219D01432934216D01432934207
:1039A00013D002F5627293420FD0143293420CD0BE
:1039B0001432934209D01432934206D01432934207
:1039C00003D0A4214948FCF777FC636833F0100268
:1039D00002D0B3F5804F6BD1A36833F0400356D1CA
:1039E000E36833F080035AD1236933F4807202D044
:1039F000B3F5007F65D1636933F4806202D0B3F51B
:103A0000006F67D1A36933F0200303D0AA213748A0
:103A1000FCF752FCE06930F4405304D03348AB214A
:103A2000FCF74AFCE069E26821682669D4E90135BF
:103A30002B43134365690A6833432B43A56922F47A
:103A40007F5222F030022B431343294A0343914211
:103A50000B6011D9274B284A284D0B44A2FB0323A6
:103A60001B099B0000200122C4E90F53A06384F8C6
:103A7000200084F8212070BD214B1F4A214D0B44AA
:103A8000A2FB03231B099B00ECE701207047A62142
:103A90001648FCF711FCE36833F08003A4D0A7219B
:103AA0001248FCF709FC236933F48072A3D09FE726
:103AB000A5210E48FCF700FCA36833F040038FD02B
:103AC000E5E7A8210948FCF7F7FB636933F4806256
:103AD00098D094E7A9210548FCF7EEFBA36933F0E1
:103AE000200397D092E700BF08000240F44F00087F
:103AF00007040240F8FBFDBFCDCCCCCC0004024053
:103B0000F8FFFDBF0000024090F82120022AF8B51E
:103B100003D0042282630120F8BD0268016C14689E
:103B2000C76B456B24F00E0414601468012624F062
:103B30000104146006FA01F10024796080F8216024
:103B400080F8204015B1A8472046F8BD2846F8BDAA
:103B500070B4D0E90F5204232968046893400B42E3
:103B600026680AD016F0040F07D02268920637D5CF
:103B7000C26A6B60CAB170BC1047022393400B420B
:103B800015D016F0020F12D02268920606D42268D1
:103B9000012122F00A02226080F82110826A6B6003
:103BA000002380F82030002AE5D170BC704708233C
:103BB00093400B42F9D03307F7D52368016B23F00C
:103BC0000E032360012303FA02F200246A60836378
:103BD00080F8213080F820400029E6D070BC0847EA
:103BE000226822F004022260C2E700BFC31E042B39
:103BF00010B5044603D9BC210848FCF75DFB084A10
:103C0000D3684FF6FF010B40240243F0BF6304F476
:103C1000E06443F400331C43D46010BD2C50000812
:103C200000ED00E00F2A70B5164605460C4629D86F
:103C30000F2C2DD81C4BDB68C3F30223C3F1070103
:103C4000042903F1040228BF0421062A17D9033BE3
:103C50004FF0FF329A4026EA02064FF0FF328A40C8
:103C600024EA02029A4032431201002DD2B214DB40
:103C700005F1604505F5614585F8002370BD002616
:103C80003346EAE7D4210948FCF716FB0F2CD1D9BB
:103C9000D5210648FCF710FBCCE7054B05F00F05D6
:103CA0002B441A7670BD00BF00ED00E02C500008D8
:103CB000FCEC00E010B5041E08DB04F01F0101233A
:103CC0006409054A8B4042F8243010BDE8210348BE
:103CD000FCF7F2FAF1E700BF00E100E02C50000829
:103CE0000138B0F1807F0ED2084B10B4084C5860F8
:103CF000F02084F823000022072110469A60196002
:103D00005DF8044B70470120704700BF10E000E0F1
:103D100000ED00E0042808B511D028B90B4A13685B
:103D200023F00403136008BD40F2E1110848FCF7DA
:103D3000C3FA064A136823F004031360F3E7034A47
:103D4000136843F00403136008BD00BF10E000E0F7
:103D50002C50000810B5B0F5007F82B0044609D0A1
:103D6000B0F5806F06D0B0F5006F03D0F721094899
:103D7000FCF7A2FA084B0949DA6942F08052DA618D
:103D8000DB6903F080530193019B0B681C430C60BB
:103D900002B010BD645000080010024000700040E6
:103DA0001749184B184A194810B4D1F8884044F400
:103DB0007004C1F888401C6844F001041C605C6811
:103DC00022405A601A6822F0847222F480321A600B
:103DD0001A6822F480221A605A6822F4FE025A609D
:103DE000DA6A22F00F02DA621A6B002410404FF0F8
:103DF000006218639C608A605DF8044B704700BFE6
:103E000000ED00E0001002400CC07FF8CCFC00FF89
:103E10000A4B1B68013308D04FF0500383F311881D
:103E2000BFF36F8FBFF34F8FFEE74FF0500383F365
:103E30001188BFF36F8FBFF34F8FFEE7080000209C
:103E400006480068006880F3088862B661B6BFF370
:103E50004F8FBFF36F8F00DF00BF000008ED00E061
:103E6000DFF80C00016841F4700101607047000048
:103E700088ED00E030B421F001014FF08075074C6F
:103E800040F80C4C6FF0020340F8202C40E902157A
:103E900040F8243C30BC4438704700BF113E000855
:103EA000074B19680868B0E8F04F80F30988BFF342
:103EB0006F8F4FF0000080F311887047AFF30080E0
:103EC000300000204FF0500383F31188BFF36F8F51
:103ED000BFF34F8F0A4A13680133012B136000D0E0
:103EE0007047084B1B6813F0FF0FF9D04FF05003D9
:103EF00083F31188BFF36F8FBFF34F8FFEE700BFCF
:103F00000800002004ED00E0084A136843B94FF0B0
:103F1000500383F31188BFF36F8FBFF34F8FFEE71A
:103F2000013B13600BB983F3118870470800002030
:103F3000EFF30980BFF36F8F154B1A681EF0100F57
:103F400008BF20ED108A20E9F04F10604DF8043DC5
:103F50004FF0500080F31188BFF34F8FBFF36F8F86
:103F600000F01CFD4FF0000080F3118808BC1968B8
:103F70000868B0E8F04F1EF0100F08BFB0EC108AD0
:103F800080F30988BFF36F8F704700BFAFF30080E5
:103F90003000002008B54FF0500383F31188BFF3C1
:103FA0006F8FBFF34F8F00F057FB18B1034B4FF0EB
:103FB00080521A60002383F3118808BD04ED00E0ED
:103FC000064B07491B680748074AA1FB03139B09D7
:103FD000013B072103601160704700BF040000200F
:103FE000D34D621014E000E010E000E0324B334AA1
:103FF000196891424ED01A68314B9A4253D010B58D
:10400000304B314C1A78314982B0D2B2FF20019244
:1040100018701B78DBB28DF803309DF803309DF8E3
:10402000032003F0500307201206237008600FD509
:10403000062200E002469DF803305B00DBB28DF8FB
:1040400003309DF803301B0602F1FF30F2D40A6002
:104050000B6801981B4C1E4A1B02C0B203F4E063BC
:104060000B602070136843F470031360136843F00F
:1040700070431360FFF7A4FF164B00221A60FFF78E
:10408000EFFE154A136843F040431360FFF7D8FE74
:10409000FFF7BEFE4FF0500383F31188BFF36F8F1D
:1040A000BFF34F8FFEE74FF0500383F31188BFF348
:1040B0006F8FBFF34F8FFEE700ED00E071C20F413D
:1040C00070C20F4100E400E0280000202C00002016
:1040D00020ED00E00800002034EF00E000F10803CC
:1040E0004FF0FF3100228160C0E90023C0E90333B3
:1040F000704700BF00230361704700BFD0E9002371
:1041000010B49C688C609C684B600132616099605F
:104110005DF8044B08610260704700BF30B40D6861
:104120006B1C11D000F1080200E01A4653681C68AD
:10413000AC42FAD904684B60013499608A605160DE
:104140000861046030BC704702695368F2E700BF41
:1041500043688168026910B49960816854684B6053
:104160001368844208BF5160013B002101615DF882
:10417000044B136018467047F8B51B4B1B4E1C6868
:1041800033680546181D0F46FFF7E2FF40B9336854
:104190001749D86A0B680122824023EA02030B60A8
:1041A0006B1C17D0336864195C600BD2114B186814
:1041B00031680431FFF7B2FF0F4B1A68A24288BF83
:1041C0001C60F8BD0D4B18683168BDE8F84004313B
:1041D000FFF7A4BF002FE5D0316809480431BDE8DE
:1041E000F840FFF78BBF00BF5401002030000020D3
:1041F000DC000020340000200C01002038000020EA
:104200002C0100202DE9F84F4FEA820A80465046E3
:104210000D4699460B9F00F0A5FC002800F0028196
:104220000646542000F09EFC0446002800F0CE8094
:1042300006632B7880F83430AAF1040A2B785644B0
:1042400026F00706002B4DD06B7880F835306B7860
:10425000002B47D0AB7880F83630AB78002B41D0BC
:10426000EB7880F83730EB78002B3BD02B7980F857
:1042700038302B79002B35D06B7980F839306B7959
:10428000002B2FD0AB7980F83A30AB7953B3EB7970
:1042900080F83B30EB792BB32B7A80F83C302B7ACB
:1042A00003B36B7A80F83D306B7ADBB1AB7A80F880
:1042B0003E30AB7AB3B1EB7A80F83F30EB7A8BB11A
:1042C0002B7B80F840302B7B63B16B7B80F84130D7
:1042D0006B7B3BB1AB7B80F84230AB7B13B1EB7BAC
:1042E00080F843300A9D062D28BF06254FF0000BAD
:1042F00004F1040AE5626564504684F843B0C4F8EA
:1043000048B0FFF7F7FEC5F1070504F11800FFF705
:10431000F1FEC4F84CB0A561246184F850B0646229
:104320004A4641463046FFF7A5FD206007B13C6094
:10433000FFF7C8FD3D4A3E4E1368013313603368F2
:10434000002B3AD03B4FE36A3A685AB3DFF8088152
:10435000394ADFF808C11068DCF800E0012528447C
:10436000106005FA03F203EB830342EA0E0208EB46
:1043700083005146CCF80020FFF7C0FEFFF7C4FDD4
:104380003B68BBB13268E36AD26A9A4212D22B4BC5
:104390004FF080521A60BFF34F8FBFF36F8F2846E4
:1043A000BDE8F88F3268DFF8B080D26A9A4298BFD1
:1043B0003460CDE72846BDE8F88F34601368012BE0
:1043C0000BD0E36ADFF890801A4FC1E7304600F067
:1043D00055FC4FF0FF30BDE8F88FDFF87C80454694
:1043E00008F18C0728461435FFF778FEBD42F9D155
:1043F000DFF86C90124D0F4F4846FFF76FFE2846CE
:10440000FFF76CFE0F48FFF769FE0F48FFF766FEE7
:104410000E48FFF763FE0E4B0E4AC2F800901D6077
:10442000E36A95E74FF0FF30BAE700BFC80000200D
:104430003000002028010020D800002004ED00E01A
:10444000F400002014010020400100202C01002075
:1044500038000020340000203C000020DC00002058
:10446000E00000202DE9F0474FF4007000F07AFBE7
:10447000002800F094800646542000F073FB0446A8
:10448000002800F0898000255C4B4363071D06630C
:1044900080F8385080F84350C562C0E9115538465D
:1044A000FFF728FE06F5FE7604F11800FFF722FE5E
:1044B00026F0070607232A46E564A36150492461D4
:1044C000304684F850506462FFF7D4FC4D4B2060B6
:1044D0001C60FFF7F7FC4C4BDFF858811A6801327B
:1044E0001A60D8F80020002A4DD0484EE06A3368A0
:1044F000002B3FD0464DDFF840E1DFF840C1DEF849
:104500000030DCF800900122824000EB8000013393
:1045100042EA0902394605EB8000CEF80030CCF8BB
:104520000020FFF7EBFDFFF7EFFC33686BB1D8F825
:104530000020E36AD26A9A4207D2364B4FF080528B
:104540001A60BFF34F8FBFF36F8F4FF0500383F3A9
:104550001188BFF36F8FBFF34F8F2F482F4B4FF052
:10456000FF340121046000223160BDE8F0471A6089
:10457000FFF73CBDD8F80030254DDB6A834298BF79
:10458000C8F80040B7E7C8F800401B68012B0FD0FF
:10459000E06A1F4D1D4EAEE7304600F06FFB4FF056
:1045A000500383F31188BFF36F8FBFF34F8FFEE784
:1045B000174D2E4605F18C0930461436FFF78EFD57
:1045C000B145F9D1DFF878A0DFF878900F4E50466A
:1045D000FFF784FD4846FFF781FD1148FFF77EFD98
:1045E0001048FFF77BFD1048FFF778FD0F4A104B8E
:1045F000C2F800A0E06AC3F800907CE749444C454B
:104600000D49000808010020C800002028010020F2
:104610003C00002004ED00E00C01002054010020CB
:1046200014010020400100202C0100203400002053
:104630003800002030000020D8000020DC000020DE
:10464000E0000020F4000020024A136801331360E8
:10465000704700BFD40000202DE9F84F494B1B687C
:10466000CBB9494B1E6801361E600EB3DFF838B176
:10467000DBF80020B24229D9444FDFF83081002511
:10468000D8F80030DB6A03EB830357F82330022BA2
:1046900028BF012504E03E4A13680133136000255A
:1046A0003C4B1B68002B0CBF28460120BDE8F88F4F
:1046B000394C23681B68002B48D04FF0500383F31C
:1046C0001188BFF36F8FBFF34F8FFEE7324C2F4F30
:1046D000DFF8D88000252DE02268D268D2F80C904F
:1046E000D9F8041009F1040A8E4250462BD3FFF783
:1046F0002FFDD9F8281009F1180009B1FFF728FD9E
:10470000264AD9F82C001368012101FA00FC00EBBD
:104710008000514607EB80004CEA030CC2F800C051
:10472000FFF7ECFCD8F80000D9F82C10C26A9142CF
:1047300028BF012522681268002ACDD14FF0FF3230
:10474000CBF800209CE7CBF8001099E7144B2168C8
:10475000144A1868206019601368013313602368D5
:104760001B6833B9DFF840B04FF0FF32CBF80020C0
:104770007EE72268DFF830B0D268D2685268CBF8A2
:10478000002075E7D4000020540100203C000020E8
:10479000D00000205801002034000020DC00002060
:1047A00038000020100100200C0100203000002003
:1047B0002DE9F84F384C236843B94FF0500383F389
:1047C0001188BFF36F8FBFF34F8FFEE7FFF77AFBC0
:1047D0002368013B236024687CBB304B1B6863B3B8
:1047E0002F4DDFF8D4A02F4EDFF8D090DFF8D0B0F7
:1047F000DAF80030012733B3DAF80C30DC6804F162
:10480000040804F11800FFF7A3FC4046FFF7A0FCE2
:10481000E06A326807FA00F300EB80001343414678
:1048200009EB80003360FFF769FCDBF80030E26AD7
:10483000DB6A9A42DCD32F60DAE70024FFF764FBDF
:104840002046BDE8F88F3CB1174B1A681268DAB9F8
:10485000164B4FF0FF321A60154E34683CB10127F9
:10486000FFF7FAFE00B12F60013CF9D134602B68EC
:10487000002BE2D00F4B4FF080521A60BFF34F8FE6
:10488000BFF36F8F0124D9E71A68084BD268D2684A
:1048900052681A60E0E700BFD4000020C800002082
:1048A00058010020DC000020340000200C01002012
:1048B000D000002004ED00E0140100203C000020A6
:1048C0003000002008B598B10E4B196841B14FF087
:1048D000500383F31188BFF36F8FBFF34F8FFEE751
:1048E0001A6801321A60FFF747FCFFF761FF38B919
:1048F000054B4FF080521A60BFF34F8FBFF36F8F9D
:1049000008BD00BFD400002004ED00E02DE9884878
:104910001C4C1D4E1D4DDFF87C80DFF87CA04FF055
:10492000805906E02368376801332360FFF740FFB2
:104930006FB92B68002BF5D1D8F80030012BF8D9CE
:10494000CAF80090BFF34F8FBFF36F8FF1E7FFF707
:10495000B9FAF368D3F80CB00BF10400FFF7F8FBD9
:104960000B4A1368013B13602B68013B2B60FFF778
:10497000CBFADBF8300000F081F9584600F07EF900
:10498000D7E700BFD400002040010020CC00002069
:10499000C80000203C00002004ED00E0194B1B681B
:1049A000EBB91949194A10B40B601368B3FA83F3D1
:1049B000DBB2C3F11F0303EB83029200144881585A
:1049C000841881B16168083249686160024491428B
:1049D00012D0104BCA681A605DF8044B70470A4B3E
:1049E00001221A6070474FF0500383F31188BFF320
:1049F0006F8FBFF34F8FFEE7142202FB030349685A
:104A00005960E6E7D400002058010020DC000020B7
:104A10003C00002030000020054B1B6833B1054BE3
:104A20001B68002B0CBF022000207047012070473C
:104A300028010020D400002008B5FFF713FD002056
:104A400008BD00BF30B5B0F9084085B0842C0246DF
:104A500014BF0334002403AD0B4640681168128A6A
:104A6000CDE90045FFF7CEFB01280CBF03980020DD
:104A700005B030BD08B5002808BF0120FFF722FFB0
:104A8000002008BD08B5FFF7C7FF012803D0BDE827
:104A90000840FFF77FBA08BD10B5014688B0002274
:104AA0003620FFF7BFF83620FFF704F9154B164CF8
:104AB000DA6942F01002DA61DB6903F0100301A940
:104AC000029303A8029BFEF70DFCFEF7DBFB0F4AE7
:104AD0000F4B23604300A2FB03239B0C0022013BEE
:104AE00040F2E73120466360C4E90312A260FCF79C
:104AF00063FA10B1012008B010BD2046FCF732FB6C
:104B000008B010BD001002408410002083DE1B435B
:104B10000010004010B4114B1A68824201D21346B3
:104B2000FAE75C681919884203D141682144596049
:104B30001846446801198A4209D1094909688A421C
:104B400005D0D2E9002121440260416000E002600A
:104B5000984218BF18605DF8044B70476C0D002038
:104B60005C010020F8B53E4D0446FFF76DFD2A6854
:104B7000002A56D03B4B1D682C424DD1002C4BD007
:104B800004F1080358071CBF23F007030833002B68
:104B900042D0354F3E689E423ED33448046806E01A
:104BA000D4F800C0BCF1000F04D020466446616810
:104BB0009942F5D394422FD022680260CA1A102A73
:104BC00010D9E018410708D04FF0500383F3118843
:104BD000BFF36F8FBFF34F8FFEE742606360FFF755
:104BE00099FF6168224A1068761A00232943864299
:104BF000C4E9003104F1080438BF16603E60FFF7D5
:104C0000D7FD63070BD04FF0500383F31188BFF338
:104C10006F8FBFF34F8FFEE7FFF7CAFD00242046DA
:104C2000F8BD144B144A1149114F5E0718BF0733E2
:104C300022F0070218BF23F007030B4E2A60184624
:104C4000D31A084D33600026C1E900064FF0004139
:104C5000C2E9006629603B60C0E900230D468BE78E
:104C60005C010020600D0020640D00206C0D002010
:104C7000680D002060010020580D0020D0B1194AB5
:104C800050F8043C1268134208D14FF0500383F3EC
:104C90001188BFF36F8FBFF34F8FFEE750F8081CEA
:104CA00049B14FF0500383F31188BFF36F8FBFF307
:104CB0004F8FFEE7704723EA020310B540F8043C2B
:104CC0000446FFF7C1FC084A54F8043C1168A4F1FB
:104CD00008000B441360FFF71DFFBDE81040FFF70D
:104CE00067BD00BF600D0020640D0020174B00B5AC
:104CF0005A6942F001025A615A6983B002F0010216
:104D00000092009A5A6942F002025A615B6903F00C
:104D100002030193002205210E20019BFEF782FF72
:104D20000E20FEF7C7FF002205210F20FEF77AFFB5
:104D30000F20FEF7BFFF002205213A20FEF772FF89
:104D40003A2003B05DF804EBFEF7B4BF0010024058
:104D5000DFF834D0002103E00C4B5B5843500431A2
:104D60000B480C4B42189A42F6D30B4A02E0002340
:104D700042F8043B094B9A42F9D3FFF711F800F0CF
:104D800011F8FBF76FFAFEE700800020BC50000826
:104D9000000000200C0000200C000020C4100020A7
:104DA000FEE7000070B50D4E0D4CA41BA4100025AD
:104DB000A54209D10B4E0C4C00F018F8A41BA4100E
:104DC0000025A54205D170BD56F82530984701351C
:104DD000EEE756F8253098470135F2E7B450000861
:104DE000B4500008B4500008B8500008F8B500BF2F
:104DF000F8BC08BC9E467047F8B500BFF8BC08BCBC
:044E00009E46704713
:104E0400184E0008C903000800000000000000005C
:104E14008000000064656661756C745461736B0096
:104E24005372632F73646164632E63005372632F40
:104E340074696D2E630000005372632F7573617281
:104E4400742E6300447269766572732F53544D3324
:104E540032463378785F48414C5F447269766572B4
:104E64002F5372632F73746D3332663378785F68AF
:104E7400616C5F73646164632E63000044726976DD
:104E84006572732F53544D3332463378785F4841FB
:104E94004C5F4472697665722F5372632F73746D1D
:104EA4003332663378785F68616C5F74696D2E6342
:104EB40000000000447269766572732F53544D33B9
:104EC40032463378785F48414C5F44726976657244
:104ED4002F5372632F73746D3332663378785F683F
:104EE400616C5F74696D5F65782E6300010408026C
:104EF400447269766572732F53544D333246337856
:104F0400785F48414C5F4472697665722F537263CF
:104F14002F73746D3332663378785F68616C5F75B4
:104F24006172742E63000000447269766572732F97
:104F340053544D3332463378785F48414C5F447262
:104F4400697665722F5372632F73746D33326633CF
:104F540078785F68616C5F7263632E6300000000A1
:104F640002030405060708090A0B0C0D0E0F1010A6
:104F74000102030405060708090A0B0C0D0E0F10A5
:104F8400447269766572732F53544D3332463378C5
:104F9400785F48414C5F4472697665722F5372633F
:104FA4002F73746D3332663378785F68616C5F7227
:104FB40063635F65782E6300447269766572732F4C
:104FC40053544D3332463378785F48414C5F4472D2
:104FD400697665722F5372632F73746D333266333F
:104FE40078785F68616C5F6770696F2E630000009A
:104FF400447269766572732F53544D333246337855
:10500400785F48414C5F4472697665722F537263CE
:105014002F73746D3332663378785F68616C5F64C4
:105024006D612E6300000000447269766572732F0F
:1050340053544D3332463378785F48414C5F447261
:10504400697665722F5372632F73746D33326633CE
:1050540078785F68616C5F636F727465782E630043
:10506400447269766572732F53544D3332463378E4
:10507400785F48414C5F4472697665722F5372635E
:105084002F73746D3332663378785F68616C5F7048
:1050940077725F65782E6300000000000000000056
:1050A40001020304060708090000000001020304CA
:0450B400B50100083A
:0450B800910100085A
:0C50BC000100000000127A00AAAAAAAAB3
:0400000508004D5151
:00000001FF
