:020000040800F2
:100000000080002021330008E1070008E307000812
:10001000E5070008E7070008E907000800000000FE
:10002000000000000000000000000000E1280008BF
:10003000EB0700080000000081290008ED07000818
:100040007133000871330008713300087133000800
:1000500071330008713300087133000871330008F0
:1000600071330008713300087133000871330008E0
:1000700071330008713300087133000871330008D0
:1000800071330008713300087133000871330008C0
:1000900071330008713300087133000871330008B0
:1000A00071330008713300087133000871330008A0
:1000B0007133000871330008713300087133000890
:1000C0007133000871330008713300087133000880
:1000D0007133000871330008713300087133000870
:1000E0007133000871330008713300087133000860
:1000F00071330008713300080000000000000000A8
:100100000000000000000000713300087133000897
:100110000000000000000000F5070008713300082F
:10012000713300087133000871330008713300081F
:10013000713300087133000871330008713300080F
:100140007133000800000000000000000000000003
:10015000000000000000000000000000000000009F
:100160000000000000000000713300087133000837
:100170007133000800000000713300080000000027
:080180000000000071330008CB
:1001900010B5054C237833B9044B13B10448AFF3C1
:1001A00000800123237010BD0C000020000000001F
:1001B000CC33000808B5034B1BB103490348AFF328
:1001C000008008BD0000000010000020CC330008B3
:1001D0002DE9F0418CB03F4B5A6942F400225A613C
:1001E0005A6902F400220192019A5A6942F480028B
:1001F0005A615A6902F480020292029A5A6942F4E0
:1002000000325A615A6902F400320392039A5A6921
:1002100042F480225A615A6902F480220492049ABC
:100220005A6942F400125A615A6902F400120592A6
:10023000059A5A6942F480125A615B6903F480138B
:100240000693069BDFF8988000224FF460414046F9
:1002500002F010F9002204214FF0904002F00AF958
:100260001D4F00224FF48071384602F003F91B4EF7
:1002700000224021304602F0FDF84FF4604307931E
:1002800001250895002409940A9407A9404602F024
:1002900027F804230793089509940A9407A94FF0B7
:1002A000904002F01DF84FF480730793089509946D
:1002B0000A9407A9384602F013F8402307930895DB
:1002C00009940A9407A9304602F00AF80CB0BDE878
:1002D000F08100BF00100240000C004800040048FC
:1002E0000008004808B54FF48071034802F0C7F8D1
:1002F000642003F004F8F6E7000C004808B5026833
:10030000034B9A4200D008BD01F03CFAFBE700BF66
:1003100000100040FEE7000000B585B01748184BFC
:100320000360002343608360C3604FF48073036104
:1003300000F070FC98B90021104800F0E1FC98B979
:100340004FF04063009300210191029103916A46AE
:100350000A4800F0B1FC60B905B05DF804FB40F25A
:100360000B110848FFF7D6FF4FF489710548FFF7D6
:10037000D1FF40F21D110348FFF7CCFFE80E00202B
:1003800000600140F833000800B58DB016484FF00A
:1003900080430360002343608360C3600361836123
:1003A00001220392049305920693079308930992FE
:1003B0000A930B9303A900F01DFE50B9002301938B
:1003C000029301A9084800F08FFF38B90DB05DF81D
:1003D00004FB4FF49D710548FFF79CFF40F241116B
:1003E0000248FFF797FF00BF2C0F0020F8330008EA
:1003F00000B58DB01548164B036000234360836041
:10040000C360036183610122039204930592069302
:100410000793089309920A930B9303A900F0EAFD4E
:1004200050B900230193029301A9084800F05CFF32
:1004300038B90DB05DF804FB4FF4AF710548FFF714
:1004400069FF40F265110348FFF764FF380E002092
:1004500000040040F833000800B593B02A482B4B45
:100460000360002343608360C3600361836100F025
:10047000A8FD00282FD10122099200230A930B9294
:100480000C930D930E930F921093119309A91E488C
:1004900000F0B0FD20BB00230793089307A91A487A
:1004A00000F022FF08BB6023009300230193029316
:1004B000049308226946144800F0A8FED0B90C2223
:1004C0006946114800F0A2FEC8B90F4800F0DCFAF6
:1004D00013B05DF804FB4FF4BD710D48FFF71AFF30
:1004E0004FF4C4710A48FFF715FF40F28F11084816
:1004F000FFF710FF4FF4CC710548FFF70BFF40F2F8
:100500009D110348FFF706FF780D0020000800400A
:10051000F833000800B593B02448254B036000234E
:1005200043608360C3600361836100F04AFD48BBA0
:100530000122099200230A930B920C930D930E93C0
:100540000F921093119309A9184800F053FDF0B9C8
:1005500000230793089307A9144800F0C5FED8B9F3
:100560006023009300230193029304930C226946B5
:100570000E4800F04BFEA0B90C4800F085FA13B00D
:100580005DF804FB4FF4DA710A48FFF7C3FE4FF43D
:10059000E1710848FFF7BEFE40F2C9110548FFF7B8
:1005A000B9FE4FF4E9710348FFF7B4FEF80D0020DF
:1005B000000C0040F833000800B589B019481A4B08
:1005C0000360002343608360C3600361836100F0C4
:1005D000F8FCB8B9602301930022029203920592BD
:1005E00001A9104800F012FE88B904220DEB0201A7
:1005F0000C4800F00BFE78B90A4800F045FA09B043
:100600005DF804FB40F2E7110848FFF783FE4FF462
:10061000F8710648FFF77EFE40F2F5110348FFF738
:1006200079FE00BF6C0F002000180040F83300086E
:1006300000B58DB01548164B0360002343608360FE
:10064000C3600361836101220392049305920693C0
:100650000793089309920A930B9303A900F0CAFC2D
:1006600050B900230193029301A9084800F03CFE11
:1006700038B90DB05DF804FB4FF405710548FFF77C
:1006800049FE40F21B210348FFF744FEB80D00204D
:10069000005C0140F833000808B50C480C4B0360BF
:1006A0000C4B436000238360C36003610C224261F2
:1006B0008361C3610362436201F01EF800B908BDA3
:1006C0004FF40C710448FFF725FE00BF780E0020A0
:1006D00000380140A0D10100F833000800B59BB0FC
:1006E000012210924FF48033119300211291149241
:1006F0000222179218934FF48013199310A801F057
:1007000067F888BB0F230B9302210C9100230D93F4
:100710004FF480620E920F930BA801F09FFB38BB41
:1007200040F601030093002302934FF028430893FF
:10073000684601F0CDFCF8B94FF4007001F01CFFE1
:1007400001F076FC0E4BA3FB0030800901F0EEFEB9
:10075000042001F001FF00220F214FF0FF3001F0D3
:10076000A5FE1BB05DF804FBD4210648FFF7D2FDBF
:10077000E2210448FFF7CEFDEA210248FFF7CAFD57
:10078000D34D6210F833000800B587B000F0E8FFE1
:10079000FFF7A4FFFFF71CFDFFF7BEFDFFF7F4FD19
:1007A000FFF726FEFFF758FEFFF7B4FEFFF704FF42
:1007B000FFF73EFFFFF770FF01AC074D0FCD0FC4F1
:1007C0002B682360002101A802F07FFD034B186015
:1007D00002F076FDFEE700BFE4330008740D002050
:1007E0007047FEE7FEE7FEE7FEE7704708B502F058
:1007F0008FFD08BD08B5024800F0ABFA08BD00BF88
:10080000AC0F002000B583B0214B9A6942F0010281
:100810009A619A6902F001020092009ADA6942F044
:100820008052DA61DB6903F080530193019B03205E
:1008300001F02AFE002211466FF00B0001F036FE97
:10084000002211466FF00A0001F030FE002211462E
:100850006FF0090001F02AFE002211466FF004003B
:1008600001F024FE002211466FF0030001F01EFE8D
:1008700000220F216FF0010001F018FE00220F216D
:100880004FF0FF3001F012FE03B05DF804FB00BF33
:10089000001002400268134B9A4200D0704730B5F6
:1008A00087B003F530439A6942F080729A619B6980
:1008B00003F080730093009B0723019303250295A7
:1008C0000024039401A9084801F00AFD4FF4407385
:1008D00001930295039401A9044801F001FD07B0BA
:1008E00030BD00BF00600140000400480010004817
:1008F00070B588B00368B3F1804F07D0334A934294
:1009000029D0334A93423DD008B070BD03F504337B
:10091000DA6942F00102DA61DB6903F00103009356
:10092000009B4FF400430393022604960024059491
:1009300006940125079503A94FF0904001F0D0FCE3
:1009400008230393049605940694079503A9214868
:1009500001F0C6FCD8E7204BDA6942F00202DA6106
:10096000DB6903F002030193019B3023039302230D
:100970000493002205920692079303A9154801F0FB
:10098000AFFCC1E7144B9A6942F400229A619B695B
:1009900003F400230293029B01230393022604968F
:1009A0000024059406940B25079503A94FF0904069
:1009B00001F096FC80230393049605940694079512
:1009C00003A9044801F08CFC9EE700BF000400402E
:1009D000005C0140000400480010024000B589B0EE
:1009E0000368254A934208D0244A93421FD0244AE0
:1009F000934235D009B05DF804FB224BDA6942F02E
:100A00000402DA61DB6903F004030093009B4FF4F6
:100A1000C0530393022304930023059306930A23F0
:100A2000079303A94FF0904001F05AFCE2E7154B01
:100A3000DA6942F00802DA61DB6903F00803019326
:100A4000019B4FF4817303930223049300220592C8
:100A50000692079303A94FF0904001F041FCC9E7CB
:100A6000084BDA6942F04002DA61DB6903F04003C7
:100A70000293029BBEE700BF00080040000C00404C
:100A8000001800400010024000B587B003681B4A00
:100A9000934208D01A4A934213D01A4A93421ED066
:100AA00007B05DF804FB4FF44073019302230293F7
:100AB000002203920492059301A9134801F010FC4F
:100AC000EEE708230193022302930022039204928B
:100AD000059301A94FF0904001F002FCE0E74FF4CC
:100AE00040430193022302930023039304930923B9
:100AF000059301A9044801F0F3FBD1E70008004089
:100B0000000C004000180040000400480268124B2E
:100B10009A4200D0704700B587B003F558439A69F0
:100B200042F480429A619B6903F480430093009BE6
:100B30004FF4C06301930223029300230393032322
:100B400004930723059301A94FF0904001F0C8FBDF
:100B500007B05DF804FB00BF0038014000B589B064
:100B600000220146362001F0A1FC362001F0D2FC23
:100B7000154BDA6942F01002DA61DB6903F0100309
:100B80000193019B02A903A801F084FA01F056FA2F
:100B900043000E48A0FB03239B0C013B0C480D4A6D
:100BA000026040F2E732C260436000230361836069
:100BB00000F0EEF918B1012009B05DF804FB04481B
:100BC00000F0B7F8F8E700BF0010024083DE1B43D7
:100BD000AC0F0020001000400268136823F00043AF
:100BE0001360704738B504460268136843F0004349
:100BF000136000F0D3FD054623689B68002B06DBDD
:100C000000F0CCFD401BC828F6D9032000E00020EE
:100C100038BD000000284AD010B504460023836187
:100C2000C3610122026242628362C3624FF40052D6
:100C30000263436383630364FFF72CFE2268136837
:100C400023F4E053136021680B686268E068024394
:100C500013430B602268536823F08073536022684B
:100C60005368A1680B435360124B1B6803F4407335
:100C7000226993420ED12268536843F00103536006
:100C800023689B6813F4004FFAD1012384F83C30A9
:100C9000002010BD074B1A6822F440721A601A68CF
:100CA00021690A431A60022000F07EFDE3E701207B
:100CB000704700BF00600140F8B590F83C30012B50
:100CC00002D001252846F8BD17460E460446FFF718
:100CD00089FF054670B9216801EB86013B687A6897
:100CE0001343BA681343FA6813430B622046FFF7B5
:100CF00073FFE7E7FF2384F83C300325E2E70000B9
:100D000002680A4B9A4209D090F83C20531EDBB28D
:100D1000012B07D9042A05D0012070470129F3D1FE
:100D20000120704781620020704700BF00600140D1
:100D300070470268D36843F00103D3600268136808
:100D400043F00103136000207047704770477047FD
:100D5000704710B5044603681A6912F0020F11D0EB
:100D6000DA6812F0020F0DD06FF002021A6101234F
:100D7000037703689B6913F0030F70D0FFF7E6FF5A
:100D80000023237723681A6912F0040F12D0DA685F
:100D900012F0040F0ED06FF004021A6102232377C1
:100DA00023689B6913F4407F5FD02046FFF7CEFF96
:100DB0000023237723681A6912F0080F12D0DA682B
:100DC00012F0080F0ED06FF008021A610423237787
:100DD0002368DB6913F0030F4ED02046FFF7B6FF00
:100DE0000023237723681A6912F0100F12D0DA68F3
:100DF00012F0100F0ED06FF010021A610823237743
:100E00002368DB6913F4407F3DD02046FFF79EFF47
:100E10000023237723681A6912F0010F03D0DA68E0
:100E200012F0010F36D123681A6912F0800F03D037
:100E3000DA6812F0800F34D123681A6912F0400F7B
:100E400003D0DA6812F0400F32D123681A6912F029
:100E5000200F03D0DA6812F0200F30D110BDFFF759
:100E600074FF2046FFF773FF8AE72046FFF76DFF08
:100E70002046FFF76CFF9BE72046FFF766FF204602
:100E8000FFF765FFACE72046FFF75FFF2046FFF75F
:100E90005EFFBDE76FF001021A612046FFF72EFAF0
:100EA000C1E76FF080021A61204600F047FAC3E7FD
:100EB0006FF040021A612046FFF74AFFC5E76FF066
:100EC00020021A61204600F038FAC7E70368B0F143
:100ED000804F0ED02C4A90420BD002F58062904297
:100EE00007D002F58062904203D002F5A83290420A
:100EF00003D123F070034A681343B0F1804F26D02A
:100F0000214A904223D002F5806290421FD002F520
:100F1000806290421BD002F54062904217D002F5E9
:100F20008062904213D002F5806290420FD002F5A9
:100F3000903290420BD002F58062904207D002F5C9
:100F40008062904203D002F5A052904203D123F474
:100F50004073CA68134323F080034A691343036054
:100F60008B68C3620B688362084B984207D003F515
:100F70008063984203D003F58063984201D10B69E6
:100F800003630123436170470004004000400140B7
:100F9000A8B110B5044690F83D305BB1022384F847
:100FA0003D30211D2068FFF791FF012384F83D307B
:100FB000002010BD80F83C30FFF7BAFEEEE70120BC
:100FC0007047A8B110B5044690F83D305BB10223DC
:100FD00084F83D30211D2068FFF778FF012384F855
:100FE0003D30002010BD80F83C30FFF7F7FCEEE705
:100FF00001207047002847D0F8B505460C4690F808
:101000003D30002B3BD0022385F83D30294651F876
:10101000042B936823F0070393602868FFF756FFBB
:1010200029688A688E690F6A2068104326F4407622
:1010300026F00306A268A36942EA0323334323F49C
:101040007C4323F0FC03E668E26946EA02261E437D
:10105000226A1303226943EA0213334327F0AA07E3
:101060006268646942EA04123A43886029688B61C5
:101070002B681A62012385F83D300020F8BD80F806
:101080003C30FFF735FCBEE70120704730B4036AFF
:1010900023F001030362036A4468826922F0730249
:1010A0000D682A4323F002038D682B43144DA84298
:1010B00007D005F58065A84203D005F58065A842F4
:1010C00005D123F00803CD682B4323F004030C4D16
:1010D000A84207D005F58065A84203D005F58065D4
:1010E000A84205D124F440754C692C438D692C43EA
:1010F000446082614A684263036230BC704700BF4B
:101100000040014030B4036A23F010030362026A16
:101110004368846924F4E6440D6844EA052422F017
:1011200020028D6842EA05120C4DA84207D005F551
:101130008065A84203D005F58065A84207D123F455
:1011400080634D6943EA85038D6943EA8503436003
:1011500084614B688363026230BC70470040014089
:1011600030B4036A23F480730362036A4268C5697A
:1011700025F073050C682C4323F400738D6843EA53
:1011800005230C4DA84207D005F58065A84203D081
:1011900005F58065A84205D14D6942EA05128D69C1
:1011A00042EA05124260C4614A68C263036230BC0D
:1011B000704700BF0040014030B4036A23F48053FD
:1011C0000362036A4468C26922F4E6420D6842EA97
:1011D000052223F400538D6843EA05330A4DA842E3
:1011E00007D005F58065A84203D005F58065A842C3
:1011F00002D14D6944EA85144460C2614A680264C0
:10120000036230BC704700BF0040014038B590F821
:101210003C30012B66D00D460446012380F83C305B
:10122000022380F83D300C2A1AD8DFE802F00719B3
:101230001919201919193419191947000068FFF7ED
:1012400025FF2268936943F008039361226893693C
:1012500023F0040393612268936929690B43936126
:10126000012384F83D30002084F83C0038BD00683C
:10127000FFF748FF2268936943F400639361226893
:10128000936923F48063936122689369296943EA2F
:1012900001239361E4E70068FFF762FF2268D369E6
:1012A00043F00803D3612268D36923F00403D361B8
:1012B0002268D36929690B43D361D1E70068FFF73E
:1012C0007BFF2268D36943F40063D3612268D3694A
:1012D00023F48063D3612268D369296943EA012337
:1012E000D361BDE70220C1E790F83C30012B22D04A
:1012F00030B4012280F83C20022380F83D3004689D
:10130000636823F070036360046863680D682B43AF
:1013100063600468A36823F08003A3600468A36883
:1013200049680B43A36080F83D20002380F83C30DF
:10133000184630BC70470220704770477047000065
:1013400010B5044683680269134342691343C269B6
:101350001A4301680B6823F4164323F00C0313436C
:101360000B600268536823F44053C1680B43536019
:101370008369026A1A4301688B6823F4306313435C
:101380008B600368724A934214D0724A934224D00D
:10139000714A93423BD01022E169B1F5004F52D01F
:1013A000082A00F2D280DFE802F096A2AED0BAD0CE
:1013B000D0D0C60002F55842126B02F00302032A95
:1013C00009D8DFE802F00204063E0122E4E7042225
:1013D000E2E70822E0E71022DEE702F5E632126BD0
:1013E00002F44032B2F5803F0BD007D9B2F5003F8E
:1013F00009D0B2F5403F08D10222CDE72AB9002238
:10140000CAE70422C8E70822C6E71022C4E702F5AB
:10141000E432126B02F44022B2F5802F0BD007D9D0
:10142000B2F5002F09D0B2F5402F08D10222B3E760
:101430002AB90022B0E70422AEE70822ACE7102266
:10144000AAE70222A8E7082A42D8DFE802F0051737
:1014500022412D414141380000F0F0FD62685308FF
:1014600003EB4003B3FBF2F39BB2002023F00F0227
:10147000C3F3420313432268D36010BD00F0F4FDB0
:101480006268530803EB4003B3FBF2F39BB2002006
:10149000ECE76268530803F5740303F51053B3FBDC
:1014A000F2F39BB20020E1E700F09AFC6268530877
:1014B00003EB4003B3FBF2F39BB20020D6E7626874
:1014C000530803F58033B3FBF2F39BB20020CDE762
:1014D00001200023CAE700F0B1FD636800EB530070
:1014E000B0FBF3F0236880B2D8600020C5E700F0BD
:1014F000BBFD636800EB5300B0FBF3F0236880B2E0
:10150000D8600020B9E761684A0802F5F40202F5E4
:101510009052B2FBF1F292B2DA600020ADE700F037
:101520005FFC636800EB5300B0FBF3F0236880B20C
:10153000D8600020A1E761684A0802F50042B2FBCA
:10154000F1F292B2DA60002097E7012095E700BF40
:10155000003801400044004000480040436A13F056
:10156000010F06D00268536823F40033816A0B43ED
:101570005360436A13F0020F06D00268536823F4E5
:101580008033C16A0B435360436A13F0040F06D0E3
:101590000268536823F48023016B0B435360436A52
:1015A00013F0080F06D00268536823F40043416B20
:1015B0000B435360436A13F0100F06D00268936820
:1015C00023F48053816B0B439360436A13F0200F25
:1015D00006D00268936823F40053C16B0B439360F9
:1015E000436A13F0400F0AD00268536823F4801353
:1015F000016C0B435360036CB3F5801F0BD0436A3F
:1016000013F0800F06D00268536823F40023816C26
:101610000B43536070470268536823F4C003416C66
:101620000B435360EBE72DE9F04105460F461646A4
:101630009846069C2B68DB6937EA03030CBF01233D
:101640000023B3421DD1B4F1FF3FF3D02CB100F021
:10165000A5F8A0EB0800A042ECD92A68136823F48F
:10166000D07313602A68936823F0010393602023EA
:1016700085F8693085F86A30002385F868300320E2
:1016800000E00020BDE8F08130B583B004460023BF
:10169000C36600F083F8054623681B6813F0080F43
:1016A0000ED123681B6813F0040F17D1202384F890
:1016B000693084F86A30002084F8680003B030BDD7
:1016C0006FF07E430093034600224FF40011204642
:1016D000FFF7A9FF0028E4D00320EFE76FF07E4377
:1016E00000932B4600224FF480012046FFF79BFF1A
:1016F0000028DBD00320E1E778B310B5044690F86A
:1017000069300BB3242384F869302268136823F00E
:10171000010313602046FFF713FE012813D0636A0C
:10172000BBB92268536823F49043536022689368DE
:1017300023F02A0393602268136843F001031360C7
:101740002046FFF7A1FF10BD80F86830FFF7DEF9F3
:10175000D8E72046FFF702FFE3E7012070470000CB
:1017600008B5074A136843F010031360032000F024
:101770008BFE0020FFF7F2F9FFF744F8002008BDC8
:1017800000200240034A1168034B1B780B4413608E
:10179000704700BFEC0F002000000020014B1868CC
:1017A000704700BFEC0F002038B50446FFF7F6FF86
:1017B0000546B4F1FF3F02D0044B1B781C44FFF7F1
:1017C000EDFF401BA042FAD338BD00BF000000204F
:1017D00070B582B00446036813F0010F3BD0B64BDE
:1017E0005B6803F00C03042B1ED0B34B5B6803F063
:1017F0000C03082B13D06368B3F5803F68D0002B2F
:1018000040F0928003F1804303F504331A6822F418
:1018100080321A601A6822F480221A605DE0A64BBA
:101820005B6813F4803FE6D04FF4003393FAA3F3E0
:10183000A14B19684FF4003393FAA3F3B3FA83F37F
:1018400003F01F03012202FA03F30B4203D0636883
:10185000002B00F0B382236813F0020F00F0C68063
:10186000954B5B6813F00C0F00F09C80924B5B680B
:1018700003F00C03082B00F08F802369002B00F08D
:10188000F380012292FAA2F3B3FA83F303F18453B3
:1018900003F584139B001A60FFF780FF05460223BF
:1018A00093FAA3F3844B1968022393FAA3F3B3FAD0
:1018B00083F303F01F03012202FA03F30B4240F00B
:1018C000C480FFF76BFF401B0228E8D903207CE2AD
:1018D000794A136843F480331360774AD36A23F05C
:1018E0000F03A1680B43D3626368002B36D0FFF768
:1018F00055FF05464FF4003393FAA3F36E4B196876
:101900004FF4003393FAA3F3B3FA83F303F01F0306
:10191000012202FA03F30B429DD1FFF73FFF401B68
:101920006428E7D9032050E2B3F5A02F09D0624B19
:101930001A6822F480321A601A6822F480221A602F
:10194000CBE703F18043A3F53C331A6842F48022CD
:101950001A601A6842F480321A60BEE7FFF71EFF71
:1019600005464FF4003393FAA3F3534B19684FF431
:10197000003393FAA3F3B3FA83F303F01F030122B6
:1019800002FA03F30B423FF466AFFFF707FF401B79
:101990006428E6D9032018E2474B5B6813F4803FC4
:1019A0007FF46BAF022393FAA3F3434B196802232E
:1019B00093FAA3F3B3FA83F303F01F03012202FAAD
:1019C00003F30B4204D02369934201D00120FCE1D0
:1019D0003948036823F0F8036169F82292FAA2F209
:1019E000B2FA82F201FA02F213430360236813F0A1
:1019F000080F00F08D80A369002B61D0012191FABE
:101A0000A1F2B2FA82F22D4B13449B001960FFF74A
:101A1000C5FE0546022393FAA3F293FAA3F293FAC2
:101A2000A3F2254A516A93FAA3F3B3FA83F303F0BE
:101A30001F03012202FA03F30B4269D1FFF7AEFE46
:101A4000401B0228E6D90320BFE11B48036823F0AE
:101A5000F8036169F82292FAA2F2B2FA82F201FA6C
:101A600002F213430360C1E7012393FAA3F3B3FA2D
:101A700083F303F1845303F584139B0000221A605F
:101A8000FFF78CFE0546022393FAA3F30A4B19686D
:101A9000022393FAA3F3B3FA83F303F01F030122A3
:101AA00002FA03F30B42A1D0FFF778FE401B022895
:101AB000E9D9032089E100BF001002402081901085
:101AC000012292FAA2F2B2FA82F2C14B13449B00B5
:101AD00000221A60FFF762FE0546022393FAA3F282
:101AE00093FAA3F293FAA3F2BA4A516A93FAA3F3D0
:101AF000B3FA83F303F01F03012202FA03F30B424C
:101B000006D0FFF74BFE401B0228E6D903205CE11C
:101B1000236813F0040F00F0B380AE4BDB6913F0C1
:101B2000805F20D1AB4BDA6942F08052DA61DB6929
:101B300003F080530193019B0125A74B1B6813F40D
:101B4000807F12D0E368012B23D073BB03F1804365
:101B500003F504331A6A22F001021A621A6A22F0AB
:101B600004021A621AE00025E7E79B4A136843F46F
:101B700080731360FFF712FE0646974B1B6813F441
:101B8000807FDFD1FFF70AFE801B6428F5D9032090
:101B90001BE1904A136A43F001031362E368002BD0
:101BA00041D0FFF7FBFD06462BE0052B09D0894B02
:101BB0001A6A22F001021A621A6A22F004021A62F8
:101BC000ECE7844B1A6A42F004021A621A6A42F085
:101BD00001021A62E2E77F4B196A022393FAA3F328
:101BE000B3FA83F303F01F03012202FA03F319424D
:101BF00045D1FFF7D3FD801B41F28833984200F2B4
:101C0000DF80022393FAA3F293FAA3F3B3FA83F3E8
:101C10005B0943F00203022BDDD0022393FAA3F306
:101C20006C4B596AD9E7FFF7B9FD064615E0694BD9
:101C3000196A022393FAA3F3B3FA83F303F01F03A1
:101C4000012202FA03F3194219D0FFF7A7FD801B06
:101C500041F28833984200F2B580022393FAA3F24E
:101C600093FAA3F3B3FA83F35B0943F00203022B65
:101C7000DDD0022393FAA3F3564B596AD9E7B5BBDB
:101C8000E369002B00F0A080524A526802F00C0277
:101C9000082A00F0A380022B2FD04FF0807393FA14
:101CA000A3F3B3FA83F303F1845303F584139B0086
:101CB00000221A60FFF772FD04464FF0007393FA9A
:101CC000A3F3444B19684FF0007393FAA3F3B3FAEC
:101CD00083F303F01F03012202FA03F319426BD0CE
:101CE000FFF75CFD001B0228E7D903206DE0394AAD
:101CF000D36923F08053D361C2E74FF0807393FA26
:101D0000A3F3B3FA83F303F1845303F584139B0025
:101D100000221A60FFF742FD05464FF0007393FA68
:101D2000A3F32C4B19684FF0007393FAA3F3B3FAA3
:101D300083F303F01F03012202FA03F3194206D0D2
:101D4000FFF72CFD401B0228E7D903203DE0214985
:101D50004B6823F47413626A206A024313434B6096
:101D60004FF0807393FAA3F3B3FA83F303F1845330
:101D700003F584139B0001221A60FFF70FFD044650
:101D80004FF0007393FAA3F3124B19684FF00073EE
:101D900093FAA3F3B3FA83F303F01F03012202FAC9
:101DA00003F3194206D1FFF7F9FC001B0228E7D91B
:101DB00003200AE0002008E0002006E0012004E003
:101DC000032002E0032000E0002002B070BD00BF4D
:101DD0002081901000100240007000400120F4E7C4
:101DE000184B5B6803F00C02042A03D0082A03D0C6
:101DF000154870471548704703F470114FF470127E
:101E000092FAA2F2B2FA82F221FA02F21049885C46
:101E10000C4AD26A02F00F020F2191FAA1F1B1FA35
:101E200081F1CA400B498A5C13F4803F05D0074B0F
:101E3000B3FBF2F300FB03F07047074B03FB00F02A
:101E4000704700BF0010024000127A00001BB7006C
:101E5000103400082034000800093D00704B1B6856
:101E600003F007038B420CD26D4A136823F007037B
:101E70000B431360136803F007038B4201D001206A
:101E8000704770B5036813F0020F06D0654A5368B7
:101E900023F0F0038468234353600C46054603682F
:101EA00013F0010F7AD04368012B2FD0022B42D0C0
:101EB000022292FAA2F25B4A1068022292FAA2F27D
:101EC000B2FA82F202F01F02012101FA02F210427C
:101ED00000F0A48053494A6822F0030213434B6088
:101EE000FFF75CFC06466B68012B39D0022B46D00D
:101EF0004C4B5B6813F00C0F50D0FFF74FFC801B6E
:101F000041F288339842F3D9032086E04FF400323F
:101F100092FAA2F2434A10684FF4003292FAA2F207
:101F2000B2FA82F202F01F02012101FA02F2024229
:101F3000D0D1012071E04FF0007292FAA2F2394A3A
:101F400010684FF0007292FAA2F2B2FA82F202F036
:101F50001F02012101FA02F21042BBD101205CE014
:101F6000304B5B6803F00C03042B17D0FFF716FC13
:101F7000801B41F288339842F2D903204DE0294B6F
:101F80005B6803F00C03082B08D0FFF707FC801BED
:101F900041F288339842F2D903203EE0204B1B687F
:101FA00003F00703A3420CD91D4A136823F007036B
:101FB00023431360136803F00703A34201D00120F9
:101FC0002BE02B6813F0040F06D0164A536823F455
:101FD000E063E9680B4353602B6813F0080F07D0E8
:101FE000104A536823F46053296943EAC1035360DC
:101FF000FFF7F6FE0B4B5B6803F0F003F02292FA5A
:10200000A2F2B2FA82F2D340074AD35CD840074B1F
:1020100018600020FEF7A2FD002070BD0120FCE743
:10202000002002400010024030340008040000206C
:10203000014B1868704700BF0400002008B5FFF787
:10204000F7FF074B5B6803F4E0634FF4E06292FA3A
:10205000A2F2B2FA82F2D340024AD35CD84008BD61
:10206000001002404034000808B5FFF7E1FF074BBD
:102070005B6803F460534FF4605292FAA2F2B2FA32
:1020800082F2D340024AD35CD84008BD001002401F
:10209000403400080F2303600B4B5A6802F0030220
:1020A00042605A6802F0F00282605A6802F4E0620C
:1020B000C2605B68DB0803F4E0630361034B1B68E9
:1020C00003F007030B60704700100240002002403D
:1020D000F0B583B00446036813F4803F48D07D4BCD
:1020E000DB6913F0805F40F0A9807A4BDA6942F037
:1020F0008052DA61DB6903F080530193019B012573
:10210000754B1B6813F4807F00F09A80714B1B6A3B
:1021100013F4407322D0626802F440729A421DD0D8
:102120006C48016A21F440764FF4803393FAA3F2AD
:10213000B2FA82F2694F3A4492004FF0010CC2F8B1
:1021400000C093FAA3F3B3FA83F33B449B0000224D
:102150001A60066211F0010F40F087805D4A136A31
:1021600023F4407361680B431362002D40F0A98093
:10217000236813F0010F06D0564A136B23F00303B4
:10218000A1680B431363236813F0020F06D0514A72
:10219000136B23F44033E1680B431363236813F09C
:1021A000040F06D04B4A136B23F4402321690B43E1
:1021B0001363236813F0200F06D0464A136B23F0F5
:1021C000100361690B431363236813F4003F06D0C7
:1021D000404A536823F48003A16A0B435360236889
:1021E00013F0400F06D03B4A136B23F02003A16984
:1021F0000B431363236813F0800F06D0354A5368EE
:1022000023F44043E1690B435360236813F4006FE8
:1022100006D0304A536823F07843216A0B43536059
:10222000236813F4806F53D02A4A136B23F04003C2
:10223000616A0B431363002003B0F0BD00255FE724
:10224000254A136843F480731360FFF7A7FA064624
:10225000214B1B6813F4807F7FF458AFFFF79EFA81
:10226000801B6428F4D90320E6E7FFF797FA0646B7
:1022700015E0184B196A022393FAA3F3B3FA83F318
:1022800003F01F03012202FA03F30B427FF466AF4F
:10229000FFF784FA801B41F28833984216D8022354
:1022A00093FAA3F293FAA3F3B3FA83F35B0943F02F
:1022B0000203022BDDD0022393FAA3F3054B596AE4
:1022C000D9E7D36923F08053D36151E70320B3E703
:1022D0000020B1E700100240007000400081901023
:1022E000F0B482B0002336E0042400E00024B440BF
:1022F0003C4302355B4E46F825405B4C2568D44391
:1023000004EA05064F6817F4803F01D042EA05064B
:10231000554D2E606D6804EA05064F6817F4003FBE
:1023200001D042EA0506504D6E60AD6804EA05062C
:102330004F6817F4801F01D042EA05064A4DAE608F
:10234000ED682C404E6816F4001F01D042EA0504E7
:10235000454AD46001330A6832FA03F47ED001247E
:102360009C402240F6D04D68022D01D0122D10D194
:10237000DE08083650F826C003F00705AF000F2529
:10238000BD402CEA050C0D69BD4045EA0C0540F83E
:10239000265006685F000325BD40ED4305EA060CA4
:1023A0004E6806F00306BE4046EA0C0606604E681C
:1023B00006F1FF3CBCF1010F03D9112E01D0122E02
:1023C00010D1866805EA060CCE68BE4046EA0C06C7
:1023D0008660466826EA04044E68C6F300169E40EE
:1023E00026434660C46825408C68BC402C43C460CA
:1023F0004C6814F0805FADD01C4CA56945F0010518
:10240000A561A46904F001040194019C9D08AE1C1F
:10241000144C54F8267003F00304A6000F24B440B3
:1024200027EA0407B0F1904F3FF460AF104CA04290
:102430000ED004F58064A0420CD004F58064A04264
:102440000AD004F58064A0423FF44EAF05244EE765
:1024500001244CE702244AE7032448E702B0F0BC19
:10246000704700BF0000014000040140001002401E
:10247000000400480AB9816270478161704743696E
:102480005940416170470000074AD36823F4E06374
:102490001B041B0C000200F4E060184340F0BF6016
:1024A00040F40030D060704700ED00E030B4174BCE
:1024B000DB68C3F30223C3F10704042C28BF042400
:1024C0001D1D062D18D9033B4FF0FF3505FA04F406
:1024D00021EA0401994005FA03F322EA03031943B0
:1024E00000280BDB0901C9B200F1604000F5614032
:1024F00080F8001330BC70470023E5E700F00F00C0
:102500000901C9B2024B1954F4E700BF00ED00E025
:1025100014ED00E000F01F02400901239340024A3D
:1025200042F82030704700BF00E100E00138B0F110
:10253000807F0AD2064B5860064AF02182F82310A9
:102540000020986007221A6070470120704700BF82
:1025500010E000E000ED00E0042805D0054A136813
:1025600023F0040313607047024A136843F0040326
:102570001360704710E000E082B0084BDA6942F067
:102580008052DA61DB6903F080530193019B044AB6
:1025900013681843106002B0704700BF001002407B
:1025A000007000401549D1F8883043F47003C1F839
:1025B0008830134B1A6842F001021A605868114AB9
:1025C00002405A601A6822F0847222F480321A6043
:1025D0001A6822F480221A605A6822F4FE025A60B5
:1025E000DA6A22F00F02DA62186B074A02401A63B5
:1025F00000229A604FF000638B60704700ED00E0AE
:10260000001002400CC07FF8CCFC00FF124A12F010
:10261000070F1ED0D11D21F00701C1F540631344FF
:102620000A460E480260002141601344083B23F033
:1026300007030B48036059601960991A51601360D1
:10264000084B1960084B1960084B4FF000421A60A4
:1026500070474FF44063E4E72C000020380C002062
:1026600028000020340C0020300C00202C0C00200E
:1026700010B4134B1A6882421BD359685C18844209
:1026800003D1406801445960184641684418A24289
:1026900013D10C4C2468A2420DD052681144416001
:1026A0001A6812680260984200D018605DF8044B06
:1026B00070471346DEE70460F5E70260F3E700BF0A
:1026C000380C00202800002070B5044600F020FCE3
:1026D0003A4B1B68BBB13A4B1B681C4263D1ACB18F
:1026E000083414F0070F11D024F00704083404F064
:1026F00007035BB14FF0500383F31188BFF36F8F73
:10270000BFF34F8FFEE7FFF781FFE4E7002C4CD0CB
:102710002C4B1B68A3424AD32B4B1D6801E02B4670
:1027200015466A68A24202D22A68002AF7D1234AD3
:102730001268AA423DD01E6808362A681A606B6883
:102740001B1B102B10D9281910F0070F08D04FF0C1
:10275000500383F31188BFF36F8FBFF34F8FFEE7F2
:1027600043606C60FFF784FF6A6816490B689B1A28
:102770000B60164909688B4201D214490B60104B5B
:102780001B6813436B6000232B6000F055FC16F0B0
:10279000070F10D04FF0500383F31188BFF36F8FF2
:1027A000BFF34F8FFEE70026EFE70026EDE7002698
:1027B000EBE70026E9E7304670BD00BF28000020A7
:1027C0002C0C0020300C0020380C0020340C002091
:1027D00080B338B50446A0F1080550F8042C16491A
:1027E00009680A4208D14FF0500383F31188BFF300
:1027F0006F8FBFF34F8FFEE750F8080C40B14FF0DA
:10280000500383F31188BFF36F8FBFF34F8FFEE741
:1028100022EA010244F8042C00F07AFB54F8041C6C
:10282000064A13680B4413602846FFF721FF00F0A7
:1028300003FC38BD704700BF2C0C0020300C00207A
:102840000B4B1B68B3F1FF3F08D04FF0500383F3ED
:102850001188BFF36F8FBFF34F8FFEE74FF0500328
:1028600083F31188BFF36F8FBFF34F8FFEE700BF75
:102870000800002006480068006880F3088862B6F7
:1028800061B6BFF34F8FBFF36F8F00DF00BF000053
:1028900008ED00E0DFF80C00016841F47001016010
:1028A0007047000088ED00E04FF0807340F8043C72
:1028B00021F0010140F8081C054B40F80C3C40F8A1
:1028C000202C6FF0020340F8243C4438704700BFCE
:1028D0004128000800000000000000000000000087
:1028E000074B19680868B0E8F04F80F30988BFF318
:1028F0006F8F4FF0000080F311887047AFF30080B6
:10290000480C00204FF0500383F31188BFF36F8F02
:10291000BFF34F8F0A4A136801331360012B00D0B5
:102920007047084B1B6813F0FF0FF9D04FF05003AE
:1029300083F31188BFF36F8FBFF34F8FFEE700BFA4
:102940000800002004ED00E0094B1B6843B94FF07C
:10295000500383F31188BFF36F8FBFF34F8FFEE7F0
:10296000013B034A13600BB983F31188704700BF22
:10297000080000200000000000000000000000002F
:10298000EFF30980BFF36F8F154B1A681EF0100F1D
:1029900008BF20ED108A20E9F04F10604DF8043D8B
:1029A0004FF0500080F31188BFF34F8FBFF36F8F4C
:1029B00000F024FC4FF0000080F3118808BC196877
:1029C0000868B0E8F04F1EF0100F08BFB0EC108A96
:1029D00080F30988BFF36F8F704700BFAFF30080AB
:1029E000480C002008B54FF0500383F31188BFF363
:1029F0006F8FBFF34F8F00F093FA18B1034B4FF076
:102A000080521A60002383F3118808BD04ED00E0B2
:102A1000064B1B68064AA2FB03239B09013B054AA0
:102A20001360054B07221A60704700BF04000020A6
:102A3000D34D621014E000E010E000E0314B1A6862
:102A4000314B9A420DD02F4B1A68304B9A4211D11C
:102A50004FF0500383F31188BFF36F8FBFF34F8F95
:102A6000FEE74FF0500383F31188BFF36F8FBFF37E
:102A70004F8FFEE700B583B0254B1A78D2B2019292
:102A8000FF221A701B78DBB28DF803309DF80330FB
:102A900003F050031F4A13701F4B07221A609DF862
:102AA000033013F0800F0AD01B4A1368013B1360F8
:102AB0009DF803305B00DBB28DF80330EFE7164A78
:102AC00013681B0203F4E0631360019BDBB2104A3E
:102AD0001370124B1A6842F470021A601A6842F0BE
:102AE00070421A60FFF794FF0D4B00221A60FFF747
:102AF000D1FE0C4A136843F040431360FFF7BAFE5F
:102B0000FFF79EFE00ED00E071C20F4170C20F4161
:102B100000E400E0400C0020440C002020ED00E028
:102B20000800002034EF00E000F1080343604FF09C
:102B3000FF328260C360036100230360704700239B
:102B40000361704743684B609A688A609A68516075
:102B500099600861036801330360704730B40D6801
:102B6000B5F1FF3F02D000F1080202E0026904E083
:102B70001A4653681C68AC42FAD953684B60996096
:102B80008A605160086103680133036030BC70479C
:102B900003694268816891608268416851605A683F
:102BA000824205D00022026118680138186070471F
:102BB00082685A60F6E70000084B1B681B683BB14F
:102BC000064B1B68DB68DB685A68054B1A60704768
:102BD000034B4FF0FF321A60704700BF4C0C0020CF
:102BE000240D002010B50446006BFFF7F1FD2046D0
:102BF000FFF7EEFD10BD2DE9F04781460D46174663
:102C00009A46089EDDF824800A9C9200A521206B3C
:102C100000F0D4FB236B07F18042013A03EB8207FB
:102C200027F0070700230F2B07D8E95CE21882F88A
:102C30003410EA5C0AB10133F5E7002384F843302D
:102C4000062E00D90626E66266640025A564201DCE
:102C5000FFF775FF04F11800FFF771FF2461C6F15B
:102C60000706A6616462E56484F8505052464946FE
:102C70003846FFF719FE2060B8F1000F01D0C8F800
:102C80000040BDE8F087000038B5002407E004EB01
:102C9000840293000E481844FFF746FF0134062CC7
:102CA000F5D90C4D2846FFF73FFF0B4C2046FFF7A8
:102CB0003BFF0A48FFF738FF0948FFF735FF09488F
:102CC000FFF732FF084B1D60084B1C6038BD00BF8A
:102CD000540C0020F80C00200C0D00202C0D0020BE
:102CE000580D0020440D00204C0C0020500C0020FA
:102CF00010B50446FFF706FE204A1368013313603F
:102D00001F4B1B685BB11F4B1B686BB91C4B1B68CF
:102D1000DA6AE36A9A4207D8194B1C6004E0184B40
:102D20001C601368012B26D0174A13680133136007
:102D3000E36A01229A401549086802430A6003EBDE
:102D400083039A00211D12481044FFF7FBFEFFF792
:102D5000FBFD0C4B1B686BB1094B1B68DA6AE36A1D
:102D60009A4207D20B4B4FF080521A60BFF34F8F3D
:102D7000BFF36F8F10BDFFF787FFD5E7E00C002092
:102D8000480C0020400D0020F00C0020F40C002026
:102D9000540C002004ED00E070B504460E461D4BB7
:102DA0001D681D4B18680430FFF7F2FE50B91A4B2E
:102DB0001B68DA6A012303FA02F218490B6823EA56
:102DC00002030B60B4F1FF3F13D02C44124B1B687D
:102DD0005C60A54216D8124B18680F4B1968043175
:102DE000FFF7BCFE0F4B1B68A34212D90D4B1C60B2
:102DF0000FE0002EE9D0084B196804310A48FFF7AC
:102E0000A1FE06E0094B1868034B19680431FFF76F
:102E1000A5FE70BD6C0D0020480C0020F40C0020B5
:102E20004C0C0020240D0020440D0020500C0020EC
:102E30002DE9F04385B0074688461546994690002F
:102E4000FFF742FCF8B106465420FFF73DFC04466C
:102E5000A8B10663D4B10023039302940D9B0193A0
:102E60000C9B00934B462A4641463846FFF7C3FE6B
:102E70002046FFF73DFF012005B0BDE8F083304656
:102E8000FFF7A6FCE6E74FF0FF30F5E74FF0FF3025
:102E9000F2E7000000B583B0174B019300230093C5
:102EA000802216491648FFF7C3FF012805D0B0F16C
:102EB000FF3F17D003B05DF804FB4FF0500383F3DE
:102EC0001188BFF36F8FBFF34F8F0E4B4FF0FF3260
:102ED0001A600D4B01221A600C4B00221A60FFF79A
:102EE000ADFDE7E74FF0500383F31188BFF36F8F19
:102EF000BFF34F8FFEE700BF200D002048340008CD
:102F0000D5310008240D0020400D00206C0D00205C
:102F1000024A136801331360704700BFEC0C0020B5
:102F2000F8B53A4B1B68002B64D1394B1D6801354D
:102F30001D60C5B9374B1B681B6843B14FF0500388
:102F400083F31188BFF36F8FBFF34F8FFEE7314AD2
:102F50001168314B186810601960304A13680133EA
:102F60001360FFF729FE2E4B1B68AB4238D90024B3
:102F70002C4B1B68DB6A03EB83039A002A4B9B589C
:102F8000012B3CD901243AE00124224B1B681B6829
:102F900043B3204B1B68DB68DE6873689D4226D311
:102FA000371D3846FFF7F4FDB36A1BB106F1180070
:102FB000FFF7EEFDF36A01229A401C4908680243BC
:102FC0000A6003EB83039A00394617481044FFF761
:102FD000B9FDF26A134B1B68DB6A9A42D4D2D4E77C
:102FE0000024D2E70E4B4FF0FF321A60C0E70C4AC4
:102FF0001360BDE70E4A13680133136000240D4BC4
:103000001B6803B101242046F8BD00BFEC0C002072
:103010006C0D00204C0C0020500C0020280D0020CE
:10302000240D0020480C0020540C0020F40C00203B
:10303000E80C0020700D002038B5334B1B6843B9F5
:103040004FF0500383F31188BFF36F8FBFF34F8F9F
:10305000FEE7FFF757FC2C4B1A68013A1A601B6811
:10306000002B4DD1294B1B6823B90024FFF76CFCC2
:10307000204638BD0024264B1B681BB3244BDB685D
:10308000DC6804F11800FFF783FD251D2846FFF7D3
:103090007FFDE36A01229A401E49086802430A60E4
:1030A00003EB83039A0029461B481044FFF74AFDAF
:1030B000E26A1A4B1B68DB6A9A42DCD3184B012286
:1030C0001A60D8E70CB1FFF777FD164B1C6854B1B6
:1030D000FFF726FF10B1124B01221A60013CF7D115
:1030E000104B00221A600E4B1B685BB10E4B4FF069
:1030F00080521A60BFF34F8FBFF36F8F0124B5E783
:103100000024B3E70024B1E7EC0C0020E00C002021
:103110002C0D0020F40C0020540C0020480C002042
:10312000700D0020E80C002004ED00E010B5A8B1FF
:1031300004460F4B1B6843B14FF0500383F31188D3
:10314000BFF36F8FBFF34F8FFEE7FFF7E1FE002164
:103150002046FFF721FEFFF76FFF38B9054B4FF010
:1031600080521A60BFF34F8FBFF36F8F10BD00BF47
:10317000EC0C002004ED00E0134B1B6813B310B5FA
:10318000FFF7C6FE114B1C68FFF756FF24B90E4B24
:103190001B68002BF4D110BDFFF7B4FB0B4BDB68B1
:1031A000DC68201DFFF7F4FC094A1368013B13603B
:1031B000054A1368013B1360FFF7C6FB2046FFF783
:1031C00011FDE4E7704700BFE40C0020580D00201B
:1031D000E00C002008B5FFF7CFFF064B1B68012B62
:1031E000F9D9054B4FF080521A60BFF34F8FBFF3F0
:1031F0006F8FF0E7540C002004ED00E0204B1B68BB
:103200001BB1204B01221A6070471E4B00221A602E
:103210001D4B1B68B3FA83F3DBB2C3F11F0303EB4F
:1032200083018A0019498A5842B94FF0500383F349
:103230001188BFF36F8FBFF34F8FFEE710B41348B1
:103240009A00D418A10001444C6864684C601A4488
:1032500091000831084484420BD003EB83039A00A9
:103260000A4B13445B68DA68094B1A605DF8044B3B
:10327000704761680548142202FB03025160ECE7C5
:10328000EC0C0020700D0020F40C0020540C0020E9
:10329000480C0020054B1B6833B1054B1B680BB174
:1032A000002070470220704701207047400D002029
:1032B000EC0C0020842801D00330704700207047B8
:1032C00008B5FFF7E7FD002008BDF0B585B00F4653
:1032D000446805680669B0F90800FFF7EBFF03AB27
:1032E000019300903B46B2B229462046FFF7A0FD6D
:1032F000012802D1039805B0F0BD0020FBE708B516
:10330000034600B901231846FFF710FF002008BD4F
:1033100008B5FFF7BFFF012801D0FFF763FB08BD29
:10332000DFF834D0002103E00C4B5B5843500431EC
:103330000B480C4B42189A42F6D30B4A02E000238A
:1033400042F8043B094B9A42F9D3FFF72BF900F0FE
:1033500011F8FDF719FAFEE7008000205834000844
:10336000000000200C0000200C000020F00F0020C6
:10337000FEE7000070B50D4E0D4CA41BA4100025F7
:10338000A54209D10B4E0C4C00F020F8A41BA41050
:103390000025A54205D170BD56F825309847013566
:1033A000EEE756F8253098470135F2E7503400082B
:1033B00050340008503400085434000802440346D6
:1033C000934200D1704703F8011BF9E7F8B500BF3D
:1033D000F8BC08BC9E467047F8B500BFF8BC08BCF6
:0433E0009E4670474E
:1033E40004340008E50200080000000000000000AA
:1033F400800000005372632F6D61696E2E630000BC
:10340400626C696E6B5461736B0000000203040507
:10341400060708090A0B0C0D0E0F10100102030415
:1034240005060708090A0B0C0D0E0F10000000001A
:103434000000000001020304060708090000000060
:0C3444000102030449444C450000000054
:04345000B5010008BA
:0434540091010008DA
:0C3458000100000000127A00AAAAAAAA33
:04000005080033219B
:00000001FF
