:020000040800F2
:1000000000800020B1300008FD070008FF0700084D
:1000100001080008030800080508000800000000A7
:10002000000000000000000000000000C1260008E1
:100030000708000800000000612700080908000800
:1000400001310008013100080131000801310008C8
:1000500001310008013100080131000801310008B8
:1000600001310008013100080131000801310008A8
:100070000131000801310008013100080131000898
:100080000131000801310008013100080131000888
:100090000131000801310008013100080131000878
:1000A0000131000801310008013100080131000868
:1000B0000131000801310008013100080131000858
:1000C0000131000801310008013100080131000848
:1000D0000131000801310008013100080131000838
:1000E0000131000801310008013100080131000828
:1000F000013100080131000800000000000000008C
:10010000000000000000000001310008013100087B
:100110000000000000000000110800080131000884
:1001200001310008013100080131000801310008E7
:1001300001310008013100080131000801310008D7
:100140000131000800000000000000000000000075
:10015000000000000000000000000000000000009F
:10016000000000000000000001310008013100081B
:10017000013100080000000001310008000000000B
:0801800000000000013100083D
:1001900010B5054C237833B9044B13B10448AFF3C1
:1001A00000800123237010BD0C000020000000001F
:1001B0004C31000808B5034B1BB103490348AFF3AA
:1001C000008008BD00000000100000204C31000835
:1001D0002DE9F0418CB03F4B5A6942F400225A613C
:1001E0005A6902F400220192019A5A6942F480028B
:1001F0005A615A6902F480020292029A5A6942F4E0
:1002000000325A615A6902F400320392039A5A6921
:1002100042F480225A615A6902F480220492049ABC
:100220005A6942F400125A615A6902F400120592A6
:10023000059A5A6942F480125A615B6903F480138B
:100240000693069BDFF8988000224FF460414046F9
:1002500002F01EF9002204214FF0904002F018F93C
:100260001D4F00224FF48071384602F011F91B4EE9
:1002700000224021304602F00BF94FF4604307930F
:1002800001250895002409940A9407A9404602F024
:1002900035F804230793089509940A9407A94FF0A9
:1002A000904002F02BF84FF480730793089509945F
:1002B0000A9407A9384602F021F8402307930895CD
:1002C00009940A9407A9304602F018F80CB0BDE86A
:1002D000F08100BF00100240000C004800040048FC
:1002E0000008004808B54FF48071034802F0D5F8C3
:1002F000642002F0CCFEF6E7000C004808B5026866
:10030000034B9A4200D008BD01F04AFAFBE700BF58
:1003100000100040FEE7000000B585B01748184BFC
:100320000360002343608360C3604FF48073036104
:1003300000F07EFC98B90021104800F0EFFC98B95D
:100340004FF04063009300210191029103916A46AE
:100350000A4800F0BFFC60B905B05DF804FB40F24C
:100360000D110848FFF7D6FF4FF48A710548FFF7D3
:10037000D1FF40F21F110348FFF7CCFF74050020A6
:10038000006001408031000800B58DB016484FF084
:1003900080430360002343608360C3600361836123
:1003A00001220392049305920693079308930992FE
:1003B0000A930B9303A900F02BFE50B9002301937D
:1003C000029301A9084800F09DFF38B90DB05DF80F
:1003D00004FB4FF49E710548FFF79CFF40F2431168
:1003E0000248FFF797FF00BFB805002080310008E2
:1003F00000B58DB01548164B036000234360836041
:10040000C360036183610122039204930592069302
:100410000793089309920A930B9303A900F0F8FD40
:1004200050B900230193029301A9084800F06AFF24
:1004300038B90DB05DF804FB4FF4B0710548FFF713
:1004400069FF40F267110348FFF764FFC40400200E
:10045000000400408031000800B593B02A482B4BBF
:100460000360002343608360C3600361836100F025
:10047000B6FD00282FD10122099200230A930B9286
:100480000C930D930E930F921093119309A91E488C
:1004900000F0BEFD20BB00230793089307A91A486C
:1004A00000F030FF08BB6023009300230193029308
:1004B000049308226946144800F0B6FED0B90C2215
:1004C0006946114800F0B0FEC8B90F4800F0EAFADA
:1004D00013B05DF804FB4FF4BE710D48FFF71AFF2F
:1004E0004FF4C5710A48FFF715FF40F29111084813
:1004F000FFF710FF4FF4CD710548FFF70BFF40F2F7
:100500009F110348FFF706FFB003002000080040DA
:100510008031000800B593B02448254B03600023C8
:1005200043608360C3600361836100F058FD48BB92
:100530000122099200230A930B920C930D930E93C0
:100540000F921093119309A9184800F061FDF0B9BA
:1005500000230793089307A9144800F0D3FED8B9E5
:100560006023009300230193029304930C226946B5
:100570000E4800F059FEA0B90C4800F093FA13B0F1
:100580005DF804FB4FF4DB710A48FFF7C3FE4FF43C
:10059000E2710848FFF7BEFE40F2CB110548FFF7B5
:1005A000B9FE4FF4EA710348FFF7B4FE840400205B
:1005B000000C00408031000800B589B019481A4B82
:1005C0000360002343608360C3600361836100F0C4
:1005D00006FDB8B9602301930022029203920592AE
:1005E00001A9104800F020FE88B904220DEB020199
:1005F0000C4800F019FE78B90A4800F053FA09B027
:100600005DF804FB40F2E9110848FFF783FE4FF460
:10061000F9710648FFF77EFE40F2F7110348FFF735
:1006200079FE00BFF8070020001800408031000864
:1006300000B58DB01548164B0360002343608360FE
:10064000C3600361836101220392049305920693C0
:100650000793089309920A930B9303A900F0D8FC1F
:1006600050B900230193029301A9084800F04AFE03
:1006700038B90DB05DF804FB40F216210548FFF7CC
:1006800049FE40F21D210348FFF744FEF00300201D
:10069000005C01408031000808B50C480C4B036039
:1006A0000C4B436000238360C36003610C224261F2
:1006B0008361C3610362436201F02CF800B908BD95
:1006C00040F232210448FFF725FE00BF0405002058
:1006D00000380140A0D101008031000800B59BB076
:1006E000012210924FF48033119300211291149241
:1006F0000222179218934FF48013199310A801F057
:1007000075F888BB0F230B9302210C9100230D93E6
:100710004FF480620E920F930BA801F0ADFB38BB33
:1007200040F601030093002302934FF028430893FF
:10073000684601F0DBFCF8B94FF4007001F02AFFC5
:1007400001F084FC0E4BA3FB0030800901F0FCFE9D
:10075000042001F00FFF00220F214FF0FF3001F0C5
:10076000B3FE1BB05DF804FBD6210648FFF7D2FDAF
:10077000E4210448FFF7CEFDEC210248FFF7CAFD53
:10078000D34D62108031000800B589B000F0F6FF4B
:10079000FFF7A4FFFFF71CFDFFF7BEFDFFF7F4FD19
:1007A000FFF726FEFFF758FEFFF7B4FEFFF704FF42
:1007B000FFF73EFFFFF770FF01AC084D0FCD0FC4F0
:1007C00095E8070084E80700002101A802F045FC35
:1007D000034B186002F03CFCFEE700BF64310008E8
:1007E000AC030020034B0360034B0B6080231360BA
:1007F000704700BF28020020280000207047FEE755
:10080000FEE7FEE7FEE7704708B502F049FC08BDC9
:1008100008B5024800F0ABFA08BD00BF3808002058
:1008200000B583B0214B9A6942F001029A619A693E
:1008300002F001020092009ADA6942F08052DA6115
:10084000DB6903F080530193019B032001F02AFE32
:10085000002211466FF00B0001F036FE0022114617
:100860006FF00A0001F030FE002211466FF009001F
:1008700001F02AFE002211466FF0040001F024FE70
:10088000002211466FF0030001F01EFE00220F212E
:100890006FF0010001F018FE00220F214FF0FF3031
:1008A00001F012FE03B05DF804FB00BF001002402F
:1008B0000268134B9A4200D0704730B587B003F5F9
:1008C00030439A6942F080729A619B6903F08073A9
:1008D0000093009B072301930325029500240394B2
:1008E00001A9084801F00AFD4FF4407301930295F5
:1008F000039401A9044801F001FD07B030BD00BF19
:1009000000600140000400480010004870B588B045
:100910000368B3F1804F07D0334A934229D0334A5A
:1009200093423DD008B070BD03F50433DA6942F05C
:100930000102DA61DB6903F001030093009B4FF4CD
:10094000004303930226049600240594069401258F
:10095000079503A94FF0904001F0D0FC08230393C2
:10096000049605940694079503A9214801F0C6FC56
:10097000D8E7204BDA6942F00202DA61DB6903F062
:1009800002030193019B302303930223049300226B
:1009900005920692079303A9154801F0AFFCC1E741
:1009A000144B9A6942F400229A619B6903F4002374
:1009B0000293029B012303930226049600240594CC
:1009C00006940B25079503A94FF0904001F096FC83
:1009D00080230393049605940694079503A904487D
:1009E00001F08CFC9EE700BF00040040005C014069
:1009F000000400480010024000B589B00368254A91
:100A0000934208D0244A93421FD0244A934235D0BF
:100A100009B05DF804FB224BDA6942F00402DA61A6
:100A2000DB6903F004030093009B4FF4C05303936E
:100A3000022304930023059306930A23079303A933
:100A40004FF0904001F05AFCE2E7154BDA6942F0B2
:100A50000802DA61DB6903F008030193019B4FF49C
:100A60008173039302230493002205920692079355
:100A700003A94FF0904001F041FCC9E7084BDA6947
:100A800042F04002DA61DB6903F040030293029B0B
:100A9000BEE700BF00080040000C00400018004006
:100AA0000010024000B587B003681B4A934208D08B
:100AB0001A4A934213D01A4A93421ED007B05DF8E7
:100AC00004FB4FF44073019302230293002203922C
:100AD0000492059301A9134801F010FCEEE70823E6
:100AE000019302230293002203920492059301A929
:100AF0004FF0904001F002FCE0E74FF440430193D7
:100B0000022302930023039304930923059301A96D
:100B1000044801F0F3FBD1E700080040000C00405E
:100B200000180040000400480268124B9A4200D0AE
:100B3000704700B587B003F558439A6942F4804284
:100B40009A619B6903F480430093009B4FF4C06358
:100B500001930223029300230393032304930723A7
:100B6000059301A94FF0904001F0C8FB07B05DF874
:100B700004FB00BF0038014000B589B000220146E7
:100B8000362001F0A1FC362001F0D2FC154BDA69C9
:100B900042F01002DA61DB6903F010030193019B5C
:100BA00002A903A801F084FA01F056FA43000E48A6
:100BB000A0FB03239B0C013B0C480D4A026040F252
:100BC000E732C260436000230361836000F0EEF906
:100BD00018B1012009B05DF804FB044800F0B7F833
:100BE000F8E700BF0010024083DE1B4338080020F6
:100BF000001000400268136823F000431360704740
:100C000038B504460268136843F00043136000F0EF
:100C1000D3FD054623689B68002B06DB00F0CCFD66
:100C2000401BC828F6D9032000E0002038BD000092
:100C300000284AD010B5044600238361C361012215
:100C4000026242628362C3624FF4005202634363F2
:100C500083630364FFF72CFE2268136823F4E053D8
:100C6000136021680B686268E068024313430B60FD
:100C70002268536823F08073536022685368A16828
:100C80000B435360124B1B6803F440732269934279
:100C90000ED12268536843F00103536023689B68B8
:100CA00013F4004FFAD1012384F83C30002010BD2A
:100CB000074B1A6822F440721A601A6821690A43C5
:100CC0001A60022000F07EFDE3E70120704700BFBC
:100CD00000600140F8B590F83C30012B02D00125AE
:100CE0002846F8BD17460E460446FFF789FF05461D
:100CF00070B9216801EB86013B687A681343BA68D2
:100D00001343FA6813430B622046FFF773FFE7E7CC
:100D1000FF2384F83C300325E2E7000002680A4B19
:100D20009A4209D090F83C20531EDBB2012B07D920
:100D3000042A05D0012070470129F3D10120704712
:100D400081620020704700BF006001407047026868
:100D5000D36843F00103D3600268136843F00103D2
:100D6000136000207047704770477047704710B598
:100D7000044603681A6912F0020F11D0DA6812F003
:100D8000020F0DD06FF002021A610123037703688E
:100D90009B6913F0030F70D0FFF7E6FF0023237762
:100DA00023681A6912F0040F12D0DA6812F0040FE7
:100DB0000ED06FF004021A610223237723689B6927
:100DC00013F4407F5FD02046FFF7CEFF0023237748
:100DD00023681A6912F0080F12D0DA6812F0080FAF
:100DE0000ED06FF008021A61042323772368DB69B1
:100DF00013F0030F4ED02046FFF7B6FF00232377F2
:100E000023681A6912F0100F12D0DA6812F0100F6E
:100E10000ED06FF010021A61082323772368DB6974
:100E200013F4407F3DD02046FFF79EFF0023237739
:100E300023681A6912F0010F03D0DA6812F0010F6B
:100E400036D123681A6912F0800F03D0DA6812F0E5
:100E5000800F34D123681A6912F0400F03D0DA688A
:100E600012F0400F32D123681A6912F0200F03D01C
:100E7000DA6812F0200F30D110BDFFF774FF204662
:100E8000FFF773FF8AE72046FFF76DFF2046FFF765
:100E90006CFF9BE72046FFF766FF2046FFF765FFE4
:100EA000ACE72046FFF75FFF2046FFF75EFFBDE798
:100EB0006FF001021A612046FFF720FAC1E76FF0D8
:100EC00080021A61204600F047FAC3E76FF0400243
:100ED0001A612046FFF74AFFC5E76FF020021A614A
:100EE000204600F038FAC7E70368B0F1804F0ED013
:100EF0002C4A90420BD002F58062904207D002F556
:100F00008062904203D002F5A832904203D123F0D0
:100F100070034A681343B0F1804F26D0214A9042B3
:100F200023D002F5806290421FD002F58062904289
:100F30001BD002F54062904217D002F580629042C9
:100F400013D002F5806290420FD002F590329042A9
:100F50000BD002F58062904207D002F58062904289
:100F600003D002F5A052904203D123F44073CA6823
:100F7000134323F080034A69134303608B68C36201
:100F80000B688362084B984207D003F58063984250
:100F900003D003F58063984201D10B6903630123F9
:100FA000436170470004004000400140A8B110B503
:100FB000044690F83D305BB1022384F83D30211D9A
:100FC0002068FFF791FF012384F83D30002010BD19
:100FD00080F83C30FFF7BAFEEEE701207047A8B179
:100FE00010B5044690F83D305BB1022384F83D30E3
:100FF000211D2068FFF778FF012384F83D30002091
:1010000010BD80F83C30FFF7F7FCEEE70120704799
:10101000002847D0F8B505460C4690F83D30002B27
:101020003BD0022385F83D30294651F8042B9368C4
:1010300023F0070393602868FFF756FF29688A6842
:101040008E690F6A2068104326F4407626F0030666
:10105000A268A36942EA0323334323F47C4323F0C9
:10106000FC03E668E26946EA02261E43226A13038D
:10107000226943EA0213334327F0AA0762686469CE
:1010800042EA04123A43886029688B612B681A622D
:10109000012385F83D300020F8BD80F83C30FFF793
:1010A00035FCBEE70120704730B4036A23F001032A
:1010B0000362036A4468826922F073020D682A435E
:1010C00023F002038D682B43144DA84207D005F589
:1010D0008065A84203D005F58065A84205D123F0BC
:1010E0000803CD682B4323F004030C4DA84207D01E
:1010F00005F58065A84203D005F58065A84205D1B5
:1011000024F440754C692C438D692C434460826102
:101110004A684263036230BC704700BF0040014030
:1011200030B4036A23F010030362026A43688469DF
:1011300024F4E6440D6844EA052422F020028D6878
:1011400042EA05120C4DA84207D005F58065A84279
:1011500003D005F58065A84207D123F480634D696B
:1011600043EA85038D6943EA8503436084614B68E4
:101170008363026230BC70470040014030B4036AB0
:1011800023F480730362036A4268C56925F073051E
:101190000C682C4323F400738D6843EA05230C4D3F
:1011A000A84207D005F58065A84203D005F5806503
:1011B000A84205D14D6942EA05128D6942EA05123D
:1011C0004260C4614A68C263036230BC704700BFBA
:1011D0000040014030B4036A23F480530362036A81
:1011E0004468C26922F4E6420D6842EA052223F40B
:1011F00000538D6843EA05330A4DA84207D005F530
:101200008065A84203D005F58065A84202D14D69EA
:1012100044EA85144460C2614A680264036230BCD7
:10122000704700BF0040014038B590F83C30012BBA
:1012300066D00D460446012380F83C30022380F836
:101240003D300C2A1AD8DFE802F0071919192019C5
:1012500019193419191947000068FFF725FF22688A
:10126000936943F0080393612268936923F00403B0
:1012700093612268936929690B439361012384F880
:101280003D30002084F83C0038BD0068FFF748FF7F
:101290002268936943F4006393612268936923F49D
:1012A0008063936122689369296943EA012393610A
:1012B000E4E70068FFF762FF2268D36943F00803A0
:1012C000D3612268D36923F00403D3612268D36910
:1012D00029690B43D361D1E70068FFF77BFF2268E0
:1012E000D36943F40063D3612268D36923F4806334
:1012F000D3612268D369296943EA0123D361BDE739
:101300000220C1E790F83C30012B22D030B40122FA
:1013100080F83C20022380F83D300468636823F0A5
:1013200070036360046863680D682B43636004683E
:10133000A36823F08003A3600468A36849680B4393
:10134000A36080F83D20002380F83C30184630BC74
:1013500070470220704770477047000010B5044680
:1013600083680269134342691343C2691A430168DF
:101370000B6823F4164323F00C0313430B6002683D
:10138000536823F44053C1680B4353608369026A76
:101390001A4301688B6823F4306313438B6003683E
:1013A000724A934214D0724A934224D0714A9342B3
:1013B0003BD01022E169B1F5004F52D0082A00F26B
:1013C000D280DFE802F096A2AED0BAD0D0D0C6006C
:1013D00002F55842126B02F00302032A09D8DFE833
:1013E00002F00204063E0122E4E70422E2E70822BA
:1013F000E0E71022DEE702F5E632126B02F440323B
:10140000B2F5803F0BD007D9B2F5003F09D0B2F555
:10141000403F08D10222CDE72AB90022CAE70422C0
:10142000C8E70822C6E71022C4E702F5E432126BCF
:1014300002F44022B2F5802F0BD007D9B2F5002F6D
:1014400009D0B2F5402F08D10222B3E72AB9002211
:10145000B0E70422AEE70822ACE71022AAE7022296
:10146000A8E7082A42D8DFE802F0051722412D41FB
:101470004141380000F0F0FD6268530803EB40037F
:10148000B3FBF2F39BB2002023F00F02C3F342033D
:1014900013432268D36010BD00F0F4FD6268530866
:1014A00003EB4003B3FBF2F39BB20020ECE762686E
:1014B000530803F5740303F51053B3FBF2F39BB227
:1014C0000020E1E700F09AFC6268530803EB400358
:1014D000B3FBF2F39BB20020D6E76268530803F532
:1014E0008033B3FBF2F39BB20020CDE70120002351
:1014F000CAE700F0B1FD636800EB5300B0FBF3F006
:10150000236880B2D8600020C5E700F0BBFD6368A7
:1015100000EB5300B0FBF3F0236880B2D8600020EA
:10152000B9E761684A0802F5F40202F59052B2FB8D
:10153000F1F292B2DA600020ADE700F05FFC636880
:1015400000EB5300B0FBF3F0236880B2D8600020BA
:10155000A1E761684A0802F50042B2FBF1F292B2DB
:10156000DA60002097E7012095E700BF00380140CE
:101570000044004000480040436A13F0010F06D0C9
:101580000268536823F40033816A0B435360436A53
:1015900013F0020F06D00268536823F48033C16A47
:1015A0000B435360436A13F0040F06D0026853687C
:1015B00023F48023016B0B435360436A13F0080F3D
:1015C00006D00268536823F40043416B0B43536019
:1015D000436A13F0100F06D00268936823F4805317
:1015E000816B0B439360436A13F0200F06D00268AF
:1015F000936823F40053C16B0B439360436A13F069
:10160000400F0AD00268536823F48013016C0B4327
:101610005360036CB3F5801F0BD0436A13F0800F47
:1016200006D00268536823F40023816C0B43536097
:1016300070470268536823F4C003416C0B43536046
:10164000EBE72DE9F04105460F4616469846069C05
:101650002B68DB6937EA03030CBF01230023B34285
:101660001DD1B4F1FF3FF3D02CB100F0A5F8A0EBF1
:101670000800A042ECD92A68136823F4D0731360E1
:101680002A68936823F001039360202385F869306A
:1016900085F86A30002385F86830032000E00020D8
:1016A000BDE8F08130B583B004460023C36600F086
:1016B00083F8054623681B6813F0080F0ED12368D2
:1016C0001B6813F0040F17D1202384F8693084F8C5
:1016D0006A30002084F8680003B030BD6FF07E43AC
:1016E0000093034600224FF400112046FFF7A9FFA4
:1016F0000028E4D00320EFE76FF07E4300932B46F1
:1017000000224FF480012046FFF79BFF0028DBD02A
:101710000320E1E778B310B5044690F869300BB3C5
:10172000242384F869302268136823F001031360CE
:101730002046FFF713FE012813D0636ABBB9226865
:10174000536823F4904353602268936823F02A037C
:1017500093602268136843F0010313602046FFF78B
:10176000A1FF10BD80F86830FFF7DEF9D8E720460A
:10177000FFF702FFE3E701207047000008B5074AC2
:10178000136843F010031360032000F08BFE002069
:10179000FFF7F2F9FFF744F8002008BD00200240EF
:1017A000034A1168034B1B780B441360704700BF5A
:1017B0007808002000000020014B1868704700BF27
:1017C0007808002038B50446FFF7F6FF0546B4F167
:1017D000FF3F02D0044B1B781C44FFF7EDFF401B7A
:1017E000A042FAD338BD00BF0000002070B582B01F
:1017F0000446036813F0010F3BD0B64B5B6803F05F
:101800000C03042B1ED0B34B5B6803F00C03082BB6
:1018100013D06368B3F5803F68D0002B40F092800E
:1018200003F1804303F504331A6822F480321A600E
:101830001A6822F480221A605DE0A64B5B6813F4FC
:10184000803FE6D04FF4003393FAA3F3A14B19681D
:101850004FF4003393FAA3F3B3FA83F303F01F03B7
:10186000012202FA03F30B4203D06368002B00F05D
:10187000B382236813F0020F00F0C680954B5B68BB
:1018800013F00C0F00F09C80924B5B6803F00C038C
:10189000082B00F08F802369002B00F0F3800122D9
:1018A00092FAA2F3B3FA83F303F1845303F584139A
:1018B0009B001A60FFF780FF0546022393FAA3F30B
:1018C000844B1968022393FAA3F3B3FA83F303F06A
:1018D0001F03012202FA03F30B4240F0C480FFF71A
:1018E0006BFF401B0228E8D903207CE2794A136889
:1018F00043F480331360774AD36A23F00F03A1685F
:101900000B43D3626368002B36D0FFF755FF0546C3
:101910004FF4003393FAA3F36E4B19684FF400337E
:1019200093FAA3F3B3FA83F303F01F03012202FA3D
:1019300003F30B429DD1FFF73FFF401B6428E7D91B
:10194000032050E2B3F5A02F09D0624B1A6822F4AD
:1019500080321A601A6822F480221A60CBE703F101
:101960008043A3F53C331A6842F480221A601A6857
:1019700042F480321A60BEE7FFF71EFF05464FF4BF
:10198000003393FAA3F3534B19684FF4003393FADF
:10199000A3F3B3FA83F303F01F03012202FA03F364
:1019A0000B423FF466AFFFF707FF401B6428E6D900
:1019B000032018E2474B5B6813F4803F7FF46BAF62
:1019C000022393FAA3F3434B1968022393FAA3F378
:1019D000B3FA83F303F01F03012202FA03F30B426D
:1019E00004D02369934201D00120FCE13948036807
:1019F00023F0F8036169F82292FAA2F2B2FA82F2B5
:101A000001FA02F213430360236813F0080F00F099
:101A10008D80A369002B61D0012191FAA1F2B2FA65
:101A200082F22D4B13449B001960FFF7C5FE05465B
:101A3000022393FAA3F293FAA3F293FAA3F2254AAC
:101A4000516A93FAA3F3B3FA83F303F01F0301225D
:101A500002FA03F30B4269D1FFF7AEFE401B0228E6
:101A6000E6D90320BFE11B48036823F0F80361694E
:101A7000F82292FAA2F2B2FA82F201FA02F21343C7
:101A80000360C1E7012393FAA3F3B3FA83F303F1ED
:101A9000845303F584139B0000221A60FFF78CFE29
:101AA0000546022393FAA3F30A4B1968022393FA1B
:101AB000A3F3B3FA83F303F01F03012202FA03F343
:101AC0000B42A1D0FFF778FE401B0228E9D9032082
:101AD00089E100BF0010024020819010012292FA9B
:101AE000A2F2B2FA82F2C14B13449B0000221A60A8
:101AF000FFF762FE0546022393FAA3F293FAA3F2DC
:101B000093FAA3F2BA4A516A93FAA3F3B3FA83F3AE
:101B100003F01F03012202FA03F30B4206D0FFF782
:101B20004BFE401B0228E6D903205CE1236813F03A
:101B3000040F00F0B380AE4BDB6913F0805F20D15F
:101B4000AB4BDA6942F08052DA61DB6903F0805313
:101B50000193019B0125A74B1B6813F4807F12D0D2
:101B6000E368012B23D073BB03F1804303F50433F7
:101B70001A6A22F001021A621A6A22F004021A6238
:101B80001AE00025E7E79B4A136843F4807313606B
:101B9000FFF712FE0646974B1B6813F4807FDFD1D8
:101BA000FFF70AFE801B6428F5D903201BE1904A49
:101BB000136A43F001031362E368002B41D0FFF77F
:101BC000FBFD06462BE0052B09D0894B1A6A22F053
:101BD00001021A621A6A22F004021A62ECE7844BCC
:101BE0001A6A42F004021A621A6A42F001021A6288
:101BF000E2E77F4B196A022393FAA3F3B3FA83F364
:101C000003F01F03012202FA03F3194245D1FFF743
:101C1000D3FD801B41F28833984200F2DF8002231B
:101C200093FAA3F293FAA3F3B3FA83F35B0943F0B5
:101C30000203022BDDD0022393FAA3F36C4B596A03
:101C4000D9E7FFF7B9FD064615E0694B196A02238B
:101C500093FAA3F3B3FA83F303F01F03012202FA0A
:101C600003F3194219D0FFF7A7FD801B41F2883317
:101C7000984200F2B580022393FAA3F293FAA3F3F9
:101C8000B3FA83F35B0943F00203022BDDD0022396
:101C900093FAA3F3564B596AD9E7B5BBE369002B16
:101CA00000F0A080524A526802F00C02082A00F0AC
:101CB000A380022B2FD04FF0807393FAA3F3B3FAD3
:101CC00083F303F1845303F584139B0000221A600D
:101CD000FFF772FD04464FF0007393FAA3F3444BF1
:101CE00019684FF0007393FAA3F3B3FA83F303F088
:101CF0001F03012202FA03F319426BD0FFF75CFDC8
:101D0000001B0228E7D903206DE0394AD36923F08C
:101D10008053D361C2E74FF0807393FAA3F3B3FA11
:101D200083F303F1845303F584139B0000221A60AC
:101D3000FFF742FD05464FF0007393FAA3F32C4BD7
:101D400019684FF0007393FAA3F3B3FA83F303F027
:101D50001F03012202FA03F3194206D0FFF72CFDFC
:101D6000401B0228E7D903203DE021494B6823F4BA
:101D70007413626A206A024313434B604FF080730E
:101D800093FAA3F3B3FA83F303F1845303F58413B3
:101D90009B0001221A60FFF70FFD04464FF000730D
:101DA00093FAA3F3124B19684FF0007393FAA3F35D
:101DB000B3FA83F303F01F03012202FA03F319427B
:101DC00006D1FFF7F9FC001B0228E7D903200AE03F
:101DD000002008E0002006E0012004E0032002E0EB
:101DE000032000E0002002B070BD00BF20819010F1
:101DF00000100240007000400120F4E7184B5B68BF
:101E000003F00C02042A03D0082A03D015487047B7
:101E10001548704703F470114FF4701292FAA2F251
:101E2000B2FA82F221FA02F21049885C0C4AD26AB4
:101E300002F00F020F2191FAA1F1B1FA81F1CA402B
:101E40000B498A5C13F4803F05D0074BB3FBF2F3D8
:101E500000FB03F07047074B03FB00F0704700BF27
:101E60000010024000127A00001BB70098310008F1
:101E7000A831000800093D00704B1B6803F0070300
:101E80008B420CD26D4A136823F007030B43136097
:101E9000136803F007038B4201D00120704770B52F
:101EA000036813F0020F06D0654A536823F0F0036D
:101EB0008468234353600C460546036813F0010F02
:101EC0007AD04368012B2FD0022B42D0022292FA03
:101ED000A2F25B4A1068022292FAA2F2B2FA82F2ED
:101EE00002F01F02012101FA02F2104200F0A48068
:101EF00053494A6822F0030213434B60FFF75CFC2E
:101F000006466B68012B39D0022B46D04C4B5B68E0
:101F100013F00C0F50D0FFF74FFC801B41F28833B9
:101F20009842F3D9032086E04FF4003292FAA2F2ED
:101F3000434A10684FF4003292FAA2F2B2FA82F2E7
:101F400002F01F02012101FA02F20242D0D1012067
:101F500071E04FF0007292FAA2F2394A10684FF025
:101F6000007292FAA2F2B2FA82F202F01F0201218A
:101F700001FA02F21042BBD101205CE0304B5B68F9
:101F800003F00C03042B17D0FFF716FC801B41F263
:101F900088339842F2D903204DE0294B5B6803F067
:101FA0000C03082B08D0FFF707FC801B41F2883395
:101FB0009842F2D903203EE0204B1B6803F0070350
:101FC000A3420CD91D4A136823F00703234313606F
:101FD000136803F00703A34201D001202BE02B6814
:101FE00013F0040F06D0164A536823F4E063E9683F
:101FF0000B4353602B6813F0080F07D0104A536847
:1020000023F46053296943EAC1035360FFF7F6FEE6
:102010000B4B5B6803F0F003F02292FAA2F2B2FAE3
:1020200082F2D340074AD35CD840074B18600020A7
:10203000FEF7A2FD002070BD0120FCE70020024059
:1020400000100240B831000804000020014B18685D
:10205000704700BF0400002008B5FFF7F7FF074BEB
:102060005B6803F4E0634FF4E06292FAA2F2B2FA22
:1020700082F2D340024AD35CD84008BD001002402F
:10208000C831000808B5FFF7E1FF074B5B6803F4B0
:1020900060534FF4605292FAA2F2B2FA82F2D34045
:1020A000024AD35CD84008BD00100240C831000885
:1020B0000F2303600B4B5A6802F0030242605A6818
:1020C00002F0F00282605A6802F4E062C2605B686B
:1020D000DB0803F4E0630361034B1B6803F00703B1
:1020E0000B6070470010024000200240F0B583B042
:1020F0000446036813F4803F48D07D4BDB6913F03E
:10210000805F40F0A9807A4BDA6942F08052DA6150
:10211000DB6903F080530193019B0125754B1B681C
:1021200013F4807F00F09A80714B1B6A13F44073A4
:1021300022D0626802F440729A421DD06C48016A53
:1021400021F440764FF4803393FAA3F2B2FA82F28C
:10215000694F3A4492004FF0010CC2F800C093FA64
:10216000A3F3B3FA83F33B449B0000221A60066298
:1021700011F0010F40F087805D4A136A23F4407329
:1021800061680B431362002D40F0A980236813F0AF
:10219000010F06D0564A136B23F00303A1680B43CB
:1021A0001363236813F0020F06D0514A136B23F414
:1021B0004033E1680B431363236813F0040F06D028
:1021C0004B4A136B23F4402321690B4313632368A9
:1021D00013F0200F06D0464A136B23F010036169F9
:1021E0000B431363236813F4003F06D0404A53683F
:1021F00023F48003A16A0B435360236813F0400F5C
:1022000006D03B4A136B23F02003A1690B431363F1
:10221000236813F0800F06D0354A536823F44043F7
:10222000E1690B435360236813F4006F06D0304A12
:10223000536823F07843216A0B435360236813F4F7
:10224000806F53D02A4A136B23F04003616A0B431B
:102250001363002003B0F0BD00255FE7254A136833
:1022600043F480731360FFF7A7FA0646214B1B68FF
:1022700013F4807F7FF458AFFFF79EFA801B642829
:10228000F4D90320E6E7FFF797FA064615E0184B66
:10229000196A022393FAA3F3B3FA83F303F01F033B
:1022A000012202FA03F30B427FF466AFFFF784FAD0
:1022B000801B41F28833984216D8022393FAA3F286
:1022C00093FAA3F3B3FA83F35B0943F00203022BFF
:1022D000DDD0022393FAA3F3054B596AD9E7D369FA
:1022E00023F08053D36151E70320B3E70020B1E727
:1022F000001002400070004000819010F0B482B0E5
:10230000002336E0042400E00024B4403C430235BE
:102310005B4E46F825405B4C2568D44304EA05062D
:102320004F6817F4803F01D042EA0506554D2E60F4
:102330006D6804EA05064F6817F4003F01D042EAD1
:102340000506504D6E60AD6804EA05064F6817F447
:10235000801F01D042EA05064A4DAE60ED682C4070
:102360004E6816F4001F01D042EA0504454AD460C5
:1023700001330A6832FA03F47ED001249C402240E3
:10238000F6D04D68022D01D0122D10D1DE0808368E
:1023900050F826C003F00705AF000F25BD402CEA1A
:1023A000050C0D69BD4045EA0C0540F8265006684D
:1023B0005F000325BD40ED4305EA060C4E6806F0BC
:1023C0000306BE4046EA0C0606604E6806F1FF3C76
:1023D000BCF1010F03D9112E01D0122E10D1866845
:1023E00005EA060CCE68BE4046EA0C0686604668E2
:1023F00026EA04044E68C6F300169E402643466053
:10240000C46825408C68BC402C43C4604C6814F000
:10241000805FADD01C4CA56945F00105A561A4699C
:1024200004F001040194019C9D08AE1C144C54F866
:10243000267003F00304A6000F24B44027EA040723
:10244000B0F1904F3FF460AF104CA0420ED004F5B5
:102450008064A0420CD004F58064A0420AD004F548
:102460008064A0423FF44EAF05244EE701244CE7C0
:1024700002244AE7032448E702B0F0BC704700BFDB
:102480000000014000040140001002400004004828
:102490000AB981627047816170474369594041615F
:1024A00070470000074AD36823F4E0631B041B0C49
:1024B000000200F4E060184340F0BF6040F40030D8
:1024C000D060704700ED00E030B4174BDB68C3F319
:1024D0000223C3F10704042C28BF04241D1D062D6C
:1024E00018D9033B4FF0FF3505FA04F421EA040143
:1024F000994005FA03F322EA0303194300280BDB92
:102500000901C9B200F1604000F5614080F8001394
:1025100030BC70470023E5E700F00F000901C9B2A5
:10252000024B1954F4E700BF00ED00E014ED00E0A9
:1025300000F01F02400901239340024A42F8203074
:10254000704700BF00E100E00138B0F1807F0AD29F
:10255000064B5860064AF02182F82310002098604C
:1025600007221A6070470120704700BF10E000E0AA
:1025700000ED00E0042805D0054A136823F00403A9
:1025800013607047024A136843F0040313607047F6
:1025900010E000E082B0084BDA6942F08052DA6164
:1025A000DB6903F080530193019B044A13681843CD
:1025B000106002B0704700BF001002400070004081
:1025C0001549D1F8883043F47003C1F88830134BB3
:1025D0001A6842F001021A605868114A02405A60B3
:1025E0001A6822F0847222F480321A601A6822F487
:1025F00080221A605A6822F4FE025A60DA6A22F0D7
:102600000F02DA62186B074A02401A6300229A60CE
:102610004FF000638B60704700ED00E00010024057
:102620000CC07FF8CCFC00FF0B4B1B68B3F1FF3FE5
:1026300008D04FF0500383F31188BFF36F8FBFF3BF
:102640004F8FFEE74FF0500383F31188BFF36F8F76
:10265000BFF34F8FFEE700BF080000200648006868
:10266000006880F3088862B661B6BFF34F8FBFF38E
:102670006F8F00DF00BF000008ED00E0DFF80C0006
:10268000016841F4700101607047000088ED00E0CE
:102690004FF0807340F8043C21F0010140F8081C21
:1026A000054B40F80C3C40F8202C6FF0020340F83A
:1026B000243C4438704700BF292600080000000071
:1026C000074B19680868B0E8F04F80F30988BFF33A
:1026D0006F8F4FF0000080F311887047AFF30080D8
:1026E000840200204FF0500383F31188BFF36F8FF3
:1026F000BFF34F8F0A4A136801331360012B00D0D8
:102700007047084B1B6813F0FF0FF9D04FF05003D0
:1027100083F31188BFF36F8FBFF34F8FFEE700BFC6
:102720000800002004ED00E0094B1B6843B94FF09E
:10273000500383F31188BFF36F8FBFF34F8FFEE712
:10274000013B034A13600BB983F31188704700BF44
:102750000800002000000000000000000000000051
:10276000EFF30980BFF36F8F154B1A681EF0100F3F
:1027700008BF20ED108A20E9F04F10604DF8043DAD
:102780004FF0500080F31188BFF34F8FBFF36F8F6E
:1027900000F0FCFB4FF0000080F3118808BC1968C2
:1027A0000868B0E8F04F1EF0100F08BFB0EC108AB8
:1027B00080F30988BFF36F8F704700BFAFF30080CD
:1027C0008402002008B54FF0500383F31188BFF353
:1027D0006F8FBFF34F8F00F06FFA18B1034B4FF0BC
:1027E00080521A60002383F3118808BD04ED00E0D5
:1027F000064B1B68064AA2FB03239B09013B054AC3
:102800001360054B07221A60704700BF04000020C8
:10281000D34D621014E000E010E000E0314B1A6884
:10282000314B9A420DD02F4B1A68304B9A4211D13E
:102830004FF0500383F31188BFF36F8FBFF34F8FB7
:10284000FEE74FF0500383F31188BFF36F8FBFF3A0
:102850004F8FFEE700B583B0254B1A78D2B20192B4
:10286000FF221A701B78DBB28DF803309DF803301D
:1028700003F050031F4A13701F4B07221A609DF884
:10288000033013F0800F0AD01B4A1368013B13601A
:102890009DF803305B00DBB28DF80330EFE7164A9A
:1028A00013681B0203F4E0631360019BDBB2104A60
:1028B0001370124B1A6842F470021A601A6842F0E0
:1028C00070421A60FFF794FF0D4B00221A60FFF769
:1028D000D5FE0C4A136843F040431360FFF7BEFE79
:1028E000FFF7A2FE00ED00E071C20F4170C20F4180
:1028F00000E400E07C0200208002002020ED00E0E7
:102900000800002034EF00E000F1080343604FF0BE
:10291000FF328260C36003610023036070470023BD
:102920000361704743684B609A688A609A68516097
:1029300099600861036801330360704730B40D6823
:10294000B5F1FF3F02D000F1080202E0026904E0A5
:102950001A4653681C68AC42FAD953684B609960B8
:102960008A605160086103680133036030BC7047BE
:1029700003694268816891608268416851605A6861
:10298000824205D000220261186801381860704741
:1029900082685A60F6E70000084B1B681B683BB171
:1029A000064B1B68DB68DB685A68054B1A6070478A
:1029B000034B4FF0FF321A60704700BF88020020BF
:1029C0005C0300202DE9F04780469946089D099F49
:1029D0000A9C266B02F18042013A06EB820626F041
:1029E000070600230F2B07D8C85CE21882F83400D2
:1029F000CA5C0AB10133F5E7002384F84330062DA1
:102A000000D90625E56265644FF0000AC4F848A0C5
:102A1000201DFFF784FF04F11800FFF780FF2461F9
:102A2000C5F10705A5616462C4F84CA084F850A004
:102A30004A4641463046FFF72BFE206007B13C6016
:102A4000BDE8F08738B5002407E004EB840293006A
:102A50000E481844FFF758FF0134062CF5D90C4DE9
:102A60002846FFF751FF0B4C2046FFF74DFF0A4861
:102A7000FFF74AFF0948FFF747FF0948FFF744FF00
:102A8000084B1D60084B1C6038BD00BF9002002041
:102A9000340300204803002064030020900300203A
:102AA0007C030020880200208C02002010B5044620
:102AB000FFF718FE204A1368013313601F4B1B6891
:102AC0005BB11F4B1B686BB91C4B1B68DA6AE36A6E
:102AD0009A4207D8194B1C6004E0184B1C6013681D
:102AE000012B26D0174A136801331360E36A0122D1
:102AF0009A401549086802430A6003EB83039A0071
:102B0000211D12481044FFF70DFFFFF70DFE0C4B7F
:102B10001B686BB1094B1B68DA6AE36A9A4207D2F9
:102B20000B4B4FF080521A60BFF34F8FBFF36F8F84
:102B300010BDFFF787FFD5E71C03002084020020AB
:102B4000780300202C030020300300209002002096
:102B500004ED00E070B504460E461D4B1D681D4B8C
:102B600018680430FFF704FF50B91A4B1B68DA6A83
:102B7000012303FA02F218490B6823EA02030B60EF
:102B8000B4F1FF3F13D02C44124B1B685C60A5428C
:102B900016D8124B18680F4B19680431FFF7CEFE98
:102BA0000F4B1B68A34212D90D4B1C600FE0002E87
:102BB000E9D0084B196804310A48FFF7B3FE06E074
:102BC000094B1868034B19680431FFF7B7FE70BD55
:102BD000A40300208402002030030020880200208B
:102BE0005C0300207C0300208C02002030B587B0FD
:102BF0000B9D0C9C4DB18CB94FF0500383F31188A1
:102C0000BFF36F8FBFF34F8FFEE74FF0500383F397
:102C10001188BFF36F8FBFF34F8FFEE72563002549
:102C20000395029405AD01950A9D0095FFF7CAFE34
:102C30002046FFF73BFF059807B030BD10B588B0C0
:102C400000240594069407AA06A905A8FDF7CAFD65
:102C5000059B0293069B019300942346079A0D4916
:102C60000D48FFF7C3FF08B908B010BD4FF050037F
:102C700083F31188BFF36F8FBFF34F8F074B4FF074
:102C8000FF321A60064B01221A60064B1C60FFF7E8
:102C9000C5FDE9E7D0310008652F00085C0300207E
:102CA00078030020A4030020024A13680133136054
:102CB000704700BF28030020F8B53A4B1B68002B73
:102CC00064D1394B1D6801351D60C5B9374B1B6890
:102CD0001B6843B14FF0500383F31188BFF36F8F2C
:102CE000BFF34F8FFEE7314A1168314B186810600F
:102CF0001960304A136801331360FFF74DFE2E4B05
:102D00001B68AB4238D900242C4B1B68DB6A03EBF1
:102D100083039A002A4B9B58012B3CD901243AE0AB
:102D20000124224B1B681B6843B3204B1B68DB68E4
:102D3000DE6873689D4226D3371D3846FFF718FEBC
:102D4000B36A1BB106F11800FFF712FEF36A012205
:102D50009A401C49086802430A6003EB83039A0007
:102D6000394617481044FFF7DDFDF26A134B1B6824
:102D7000DB6A9A42D4D2D4E70024D2E70E4B4FF05C
:102D8000FF321A60C0E70C4A1360BDE70E4A1368B1
:102D90000133136000240D4B1B6803B1012420464E
:102DA000F8BD00BF28030020A403002088020020F3
:102DB0008C020020600300205C03002084020020BD
:102DC000900200203003002024030020A8030020EC
:102DD00038B5334B1B6843B94FF0500383F3118868
:102DE000BFF36F8FBFF34F8FFEE7FFF77BFC2C4BDA
:102DF0001A68013A1A601B68002B4DD1294B1B68D9
:102E000023B90024FFF790FC204638BD0024264B50
:102E10001B681BB3244BDB68DC6804F11800FFF768
:102E2000A7FD251D2846FFF7A3FDE36A01229A406E
:102E30001E49086802430A6003EB83039A0029468F
:102E40001B481044FFF76EFDE26A1A4B1B68DB6AF1
:102E50009A42DCD3184B01221A60D8E70CB1FFF775
:102E60009BFD164B1C6854B1FFF726FF10B1124BA7
:102E700001221A60013CF7D1104B00221A600E4B60
:102E80001B685BB10E4B4FF080521A60BFF34F8F3F
:102E9000BFF36F8F0124B5E70024B3E70024B1E747
:102EA000280300201C0300206403002030030020BE
:102EB0009002002084020020A803002024030020A8
:102EC00004ED00E010B5A8B104460F4B1B6843B1F8
:102ED0004FF0500383F31188BFF36F8FBFF34F8F11
:102EE000FEE7FFF7E1FE00212046FFF733FEFFF784
:102EF0006FFF38B9054B4FF080521A60BFF34F8F08
:102F0000BFF36F8F10BD00BF2803002004ED00E069
:102F1000114B1B68FBB110B5FFF7C6FE0F4B1C68C9
:102F2000FFF756FF24B90C4B1B68002BF4D110BDE2
:102F3000FFF7D8FB094BDB68D8680430FFF718FDB2
:102F4000074A1368013B1360034A1368013B13608F
:102F5000FFF7EAFBE7E7704720030020900300201B
:102F60001C03002008B5FFF7D3FF064B1B68012B9D
:102F7000F9D9054B4FF080521A60BFF34F8FBFF362
:102F80006F8FF0E79002002004ED00E0204B1B68FB
:102F90001BB1204B01221A6070471E4B00221A60A1
:102FA0001D4B1B68B3FA83F3DBB2C3F11F0303EBC2
:102FB00083018A0019498A5842B94FF0500383F3BC
:102FC0001188BFF36F8FBFF34F8FFEE710B4134824
:102FD0009A00D418A10001444C6864684C601A44FB
:102FE00091000831084484420BD003EB83039A001C
:102FF0000A4B13445B68DA68094B1A605DF8044BAE
:10300000704761680548142202FB03025160ECE737
:1030100028030020A8030020300300209002002095
:1030200084020020054B1B6833B1054B1B680BB1B4
:10303000002070470220704701207047780300206D
:1030400028030020842801D00330704700207047F7
:1030500008B5FFF7F3FD002008BD2DE9F04184B06D
:1030600004468846456806680769B0F90800FFF716
:10307000E9FF6369A26902920193009043463A46D0
:1030800031462846FFF7B2FD04B0BDE8F08108B52F
:10309000034600B901231846FFF714FF002008BDBE
:1030A00008B5FFF7BFFF012801D0FFF78BFB08BD74
:1030B000DFF834D0002103E00C4B5B58435004315F
:1030C0000B480C4B42189A42F6D30B4A02E00023FD
:1030D00042F8043B094B9A42F9D3FFF771FA00F02A
:1030E00011F8FDF751FBFEE700800020E0310008F9
:1030F000000000200C0000200C0000207C080020B4
:10310000FEE7000070B50D4E0D4CA41BA410002569
:10311000A54209D10B4E0C4C00F018F8A41BA410CA
:103120000025A54205D170BD56F8253098470135D8
:10313000EEE756F8253098470135F2E7D831000818
:10314000D8310008D8310008DC310008F8B500BFDC
:10315000F8BC08BC9E467047F8B500BFF8BC08BC78
:043160009E467047D0
:103164008C310008E50200080000000000000000A7
:1031740080000000F8050020300400205372632F03
:103184006D61696E2E630000626C696E6B546173CD
:103194006B00000002030405060708090A0B0C0D66
:1031A4000E0F10100102030405060708090A0B0C90
:1031B4000D0E0F10000000000000000001020304C7
:1031C40006070809000000000102030449444C45B5
:0431D40000000000F7
:0431D800B501000835
:0431DC009101000855
:0C31E0000100000000127A00AAAAAAAAAE
:04000005080030B10E
:00000001FF
